{
  "contractName": "ARISwapToken",
  "abi": [
    {
      "inputs": [],
      "stateMutability": "nonpayable",
      "type": "constructor"
    },
    {
      "anonymous": false,
      "inputs": [
        {
          "indexed": true,
          "internalType": "address",
          "name": "owner",
          "type": "address"
        },
        {
          "indexed": true,
          "internalType": "address",
          "name": "approved",
          "type": "address"
        },
        {
          "indexed": true,
          "internalType": "uint256",
          "name": "tokenId",
          "type": "uint256"
        }
      ],
      "name": "Approval",
      "type": "event"
    },
    {
      "anonymous": false,
      "inputs": [
        {
          "indexed": true,
          "internalType": "address",
          "name": "owner",
          "type": "address"
        },
        {
          "indexed": true,
          "internalType": "address",
          "name": "operator",
          "type": "address"
        },
        {
          "indexed": false,
          "internalType": "bool",
          "name": "approved",
          "type": "bool"
        }
      ],
      "name": "ApprovalForAll",
      "type": "event"
    },
    {
      "anonymous": false,
      "inputs": [
        {
          "indexed": true,
          "internalType": "uint256",
          "name": "tokenId",
          "type": "uint256"
        },
        {
          "indexed": true,
          "internalType": "uint256",
          "name": "price",
          "type": "uint256"
        }
      ],
      "name": "NewOffer",
      "type": "event"
    },
    {
      "anonymous": false,
      "inputs": [
        {
          "indexed": true,
          "internalType": "uint256",
          "name": "tokenId",
          "type": "uint256"
        },
        {
          "indexed": true,
          "internalType": "uint256",
          "name": "price",
          "type": "uint256"
        },
        {
          "indexed": false,
          "internalType": "address",
          "name": "from",
          "type": "address"
        },
        {
          "indexed": false,
          "internalType": "address",
          "name": "to",
          "type": "address"
        }
      ],
      "name": "OfferAccepted",
      "type": "event"
    },
    {
      "anonymous": false,
      "inputs": [
        {
          "indexed": false,
          "internalType": "address",
          "name": "owner",
          "type": "address"
        },
        {
          "indexed": false,
          "internalType": "address",
          "name": "buyer",
          "type": "address"
        },
        {
          "indexed": false,
          "internalType": "uint256",
          "name": "TokenId",
          "type": "uint256"
        }
      ],
      "name": "OfferBuyFixedPrice",
      "type": "event"
    },
    {
      "anonymous": false,
      "inputs": [
        {
          "indexed": false,
          "internalType": "address",
          "name": "",
          "type": "address"
        },
        {
          "indexed": false,
          "internalType": "uint256",
          "name": "tokenId",
          "type": "uint256"
        }
      ],
      "name": "OfferSale",
      "type": "event"
    },
    {
      "anonymous": false,
      "inputs": [
        {
          "indexed": true,
          "internalType": "address",
          "name": "previousOwner",
          "type": "address"
        },
        {
          "indexed": true,
          "internalType": "address",
          "name": "newOwner",
          "type": "address"
        }
      ],
      "name": "OwnershipTransferred",
      "type": "event"
    },
    {
      "anonymous": false,
      "inputs": [
        {
          "indexed": true,
          "internalType": "address",
          "name": "from",
          "type": "address"
        },
        {
          "indexed": true,
          "internalType": "address",
          "name": "to",
          "type": "address"
        },
        {
          "indexed": true,
          "internalType": "uint256",
          "name": "tokenId",
          "type": "uint256"
        }
      ],
      "name": "Transfer",
      "type": "event"
    },
    {
      "inputs": [
        {
          "internalType": "uint256",
          "name": "",
          "type": "uint256"
        }
      ],
      "name": "Fixedprices",
      "outputs": [
        {
          "internalType": "uint256",
          "name": "price",
          "type": "uint256"
        },
        {
          "internalType": "address",
          "name": "owner",
          "type": "address"
        },
        {
          "internalType": "uint256",
          "name": "paid",
          "type": "uint256"
        },
        {
          "internalType": "address",
          "name": "newowner",
          "type": "address"
        },
        {
          "internalType": "bool",
          "name": "forsale",
          "type": "bool"
        }
      ],
      "stateMutability": "view",
      "type": "function"
    },
    {
      "inputs": [],
      "name": "_tokenIds",
      "outputs": [
        {
          "internalType": "uint256",
          "name": "",
          "type": "uint256"
        }
      ],
      "stateMutability": "view",
      "type": "function"
    },
    {
      "inputs": [
        {
          "internalType": "address",
          "name": "to",
          "type": "address"
        },
        {
          "internalType": "uint256",
          "name": "tokenId",
          "type": "uint256"
        }
      ],
      "name": "approve",
      "outputs": [],
      "stateMutability": "nonpayable",
      "type": "function"
    },
    {
      "inputs": [
        {
          "internalType": "address",
          "name": "owner",
          "type": "address"
        }
      ],
      "name": "balanceOf",
      "outputs": [
        {
          "internalType": "uint256",
          "name": "",
          "type": "uint256"
        }
      ],
      "stateMutability": "view",
      "type": "function"
    },
    {
      "inputs": [
        {
          "internalType": "address",
          "name": "",
          "type": "address"
        },
        {
          "internalType": "uint256",
          "name": "",
          "type": "uint256"
        }
      ],
      "name": "bidForBidder",
      "outputs": [
        {
          "internalType": "uint256",
          "name": "paid",
          "type": "uint256"
        },
        {
          "internalType": "bool",
          "name": "bidded",
          "type": "bool"
        }
      ],
      "stateMutability": "view",
      "type": "function"
    },
    {
      "inputs": [
        {
          "internalType": "uint256",
          "name": "",
          "type": "uint256"
        }
      ],
      "name": "biddingInfo",
      "outputs": [
        {
          "internalType": "uint256",
          "name": "biddingId",
          "type": "uint256"
        },
        {
          "internalType": "bool",
          "name": "OpenForBidding",
          "type": "bool"
        },
        {
          "internalType": "uint256",
          "name": "start_time",
          "type": "uint256"
        },
        {
          "internalType": "uint256",
          "name": "end_time",
          "type": "uint256"
        },
        {
          "internalType": "uint256",
          "name": "bidPrice",
          "type": "uint256"
        },
        {
          "internalType": "address",
          "name": "winner",
          "type": "address"
        }
      ],
      "stateMutability": "view",
      "type": "function"
    },
    {
      "inputs": [
        {
          "internalType": "uint256",
          "name": "tokenId",
          "type": "uint256"
        }
      ],
      "name": "getApproved",
      "outputs": [
        {
          "internalType": "address",
          "name": "",
          "type": "address"
        }
      ],
      "stateMutability": "view",
      "type": "function"
    },
    {
      "inputs": [
        {
          "internalType": "address",
          "name": "",
          "type": "address"
        }
      ],
      "name": "getbiidingByAddress",
      "outputs": [
        {
          "internalType": "uint256",
          "name": "",
          "type": "uint256"
        }
      ],
      "stateMutability": "view",
      "type": "function"
    },
    {
      "inputs": [
        {
          "internalType": "address",
          "name": "owner",
          "type": "address"
        },
        {
          "internalType": "address",
          "name": "operator",
          "type": "address"
        }
      ],
      "name": "isApprovedForAll",
      "outputs": [
        {
          "internalType": "bool",
          "name": "",
          "type": "bool"
        }
      ],
      "stateMutability": "view",
      "type": "function"
    },
    {
      "inputs": [],
      "name": "name",
      "outputs": [
        {
          "internalType": "string",
          "name": "",
          "type": "string"
        }
      ],
      "stateMutability": "view",
      "type": "function"
    },
    {
      "inputs": [],
      "name": "newCreateNFTPrice",
      "outputs": [
        {
          "internalType": "uint256",
          "name": "",
          "type": "uint256"
        }
      ],
      "stateMutability": "view",
      "type": "function"
    },
    {
      "inputs": [],
      "name": "owner",
      "outputs": [
        {
          "internalType": "address",
          "name": "",
          "type": "address"
        }
      ],
      "stateMutability": "view",
      "type": "function"
    },
    {
      "inputs": [
        {
          "internalType": "uint256",
          "name": "tokenId",
          "type": "uint256"
        }
      ],
      "name": "ownerOf",
      "outputs": [
        {
          "internalType": "address",
          "name": "",
          "type": "address"
        }
      ],
      "stateMutability": "view",
      "type": "function"
    },
    {
      "inputs": [],
      "name": "renounceOwnership",
      "outputs": [],
      "stateMutability": "nonpayable",
      "type": "function"
    },
    {
      "inputs": [
        {
          "internalType": "address",
          "name": "from",
          "type": "address"
        },
        {
          "internalType": "address",
          "name": "to",
          "type": "address"
        },
        {
          "internalType": "uint256",
          "name": "tokenId",
          "type": "uint256"
        }
      ],
      "name": "safeTransferFrom",
      "outputs": [],
      "stateMutability": "nonpayable",
      "type": "function"
    },
    {
      "inputs": [
        {
          "internalType": "address",
          "name": "from",
          "type": "address"
        },
        {
          "internalType": "address",
          "name": "to",
          "type": "address"
        },
        {
          "internalType": "uint256",
          "name": "tokenId",
          "type": "uint256"
        },
        {
          "internalType": "bytes",
          "name": "_data",
          "type": "bytes"
        }
      ],
      "name": "safeTransferFrom",
      "outputs": [],
      "stateMutability": "nonpayable",
      "type": "function"
    },
    {
      "inputs": [
        {
          "internalType": "address",
          "name": "operator",
          "type": "address"
        },
        {
          "internalType": "bool",
          "name": "approved",
          "type": "bool"
        }
      ],
      "name": "setApprovalForAll",
      "outputs": [],
      "stateMutability": "nonpayable",
      "type": "function"
    },
    {
      "inputs": [
        {
          "internalType": "bytes4",
          "name": "interfaceId",
          "type": "bytes4"
        }
      ],
      "name": "supportsInterface",
      "outputs": [
        {
          "internalType": "bool",
          "name": "",
          "type": "bool"
        }
      ],
      "stateMutability": "view",
      "type": "function"
    },
    {
      "inputs": [],
      "name": "symbol",
      "outputs": [
        {
          "internalType": "string",
          "name": "",
          "type": "string"
        }
      ],
      "stateMutability": "view",
      "type": "function"
    },
    {
      "inputs": [
        {
          "internalType": "address",
          "name": "from",
          "type": "address"
        },
        {
          "internalType": "address",
          "name": "to",
          "type": "address"
        },
        {
          "internalType": "uint256",
          "name": "tokenId",
          "type": "uint256"
        }
      ],
      "name": "transferFrom",
      "outputs": [],
      "stateMutability": "nonpayable",
      "type": "function"
    },
    {
      "inputs": [
        {
          "internalType": "address",
          "name": "newOwner",
          "type": "address"
        }
      ],
      "name": "transferOwnership",
      "outputs": [],
      "stateMutability": "nonpayable",
      "type": "function"
    },
    {
      "stateMutability": "payable",
      "type": "receive"
    },
    {
      "inputs": [
        {
          "internalType": "address",
          "name": "to",
          "type": "address"
        },
        {
          "internalType": "uint256",
          "name": "tokenId",
          "type": "uint256"
        }
      ],
      "name": "safeMint",
      "outputs": [],
      "stateMutability": "nonpayable",
      "type": "function"
    },
    {
      "inputs": [
        {
          "internalType": "uint256",
          "name": "tokenId",
          "type": "uint256"
        }
      ],
      "name": "tokenURI",
      "outputs": [
        {
          "internalType": "string",
          "name": "",
          "type": "string"
        }
      ],
      "stateMutability": "view",
      "type": "function"
    },
    {
      "inputs": [
        {
          "internalType": "address",
          "name": "to",
          "type": "address"
        },
        {
          "internalType": "string",
          "name": "tokenUri",
          "type": "string"
        }
      ],
      "name": "createNewNFT",
      "outputs": [
        {
          "internalType": "uint256",
          "name": "newID",
          "type": "uint256"
        }
      ],
      "stateMutability": "payable",
      "type": "function"
    },
    {
      "inputs": [],
      "name": "withdraw",
      "outputs": [],
      "stateMutability": "nonpayable",
      "type": "function"
    },
    {
      "inputs": [
        {
          "internalType": "uint256",
          "name": "tokenId",
          "type": "uint256"
        }
      ],
      "name": "openNFTForBidding",
      "outputs": [
        {
          "internalType": "bool",
          "name": "",
          "type": "bool"
        }
      ],
      "stateMutability": "nonpayable",
      "type": "function"
    },
    {
      "inputs": [
        {
          "internalType": "uint256",
          "name": "tokenId",
          "type": "uint256"
        },
        {
          "internalType": "uint256",
          "name": "timedurantion",
          "type": "uint256"
        }
      ],
      "name": "openNFTForBiddingForSpecific",
      "outputs": [
        {
          "internalType": "bool",
          "name": "",
          "type": "bool"
        }
      ],
      "stateMutability": "nonpayable",
      "type": "function"
    },
    {
      "inputs": [
        {
          "internalType": "uint256",
          "name": "tokenId",
          "type": "uint256"
        }
      ],
      "name": "placeBid",
      "outputs": [],
      "stateMutability": "payable",
      "type": "function"
    },
    {
      "inputs": [
        {
          "internalType": "uint256",
          "name": "tokenId",
          "type": "uint256"
        }
      ],
      "name": "acceptOffer",
      "outputs": [],
      "stateMutability": "nonpayable",
      "type": "function"
    },
    {
      "inputs": [
        {
          "internalType": "uint256",
          "name": "tokenId",
          "type": "uint256"
        }
      ],
      "name": "ClaimFundsAfterBidding",
      "outputs": [
        {
          "internalType": "bool",
          "name": "",
          "type": "bool"
        }
      ],
      "stateMutability": "nonpayable",
      "type": "function"
    },
    {
      "inputs": [
        {
          "internalType": "uint256",
          "name": "tokenId",
          "type": "uint256"
        }
      ],
      "name": "PutOnSale",
      "outputs": [
        {
          "internalType": "bool",
          "name": "",
          "type": "bool"
        }
      ],
      "stateMutability": "nonpayable",
      "type": "function"
    },
    {
      "inputs": [
        {
          "internalType": "uint256",
          "name": "tokenId",
          "type": "uint256"
        }
      ],
      "name": "BuyFixedPriceNFTs",
      "outputs": [
        {
          "internalType": "bool",
          "name": "",
          "type": "bool"
        }
      ],
      "stateMutability": "payable",
      "type": "function"
    },
    {
      "inputs": [
        {
          "internalType": "uint256",
          "name": "tokenId",
          "type": "uint256"
        }
      ],
      "name": "acceptOfferForFixedPrice",
      "outputs": [
        {
          "internalType": "bool",
          "name": "",
          "type": "bool"
        }
      ],
      "stateMutability": "nonpayable",
      "type": "function"
    },
    {
      "inputs": [
        {
          "internalType": "uint256",
          "name": "tokenId",
          "type": "uint256"
        }
      ],
      "name": "getBiddingData",
      "outputs": [
        {
          "internalType": "uint256",
          "name": "",
          "type": "uint256"
        },
        {
          "internalType": "bool",
          "name": "",
          "type": "bool"
        },
        {
          "internalType": "uint256",
          "name": "",
          "type": "uint256"
        },
        {
          "internalType": "uint256",
          "name": "",
          "type": "uint256"
        },
        {
          "internalType": "uint256",
          "name": "",
          "type": "uint256"
        },
        {
          "internalType": "address",
          "name": "",
          "type": "address"
        }
      ],
      "stateMutability": "view",
      "type": "function"
    },
    {
      "inputs": [
        {
          "internalType": "uint256",
          "name": "value",
          "type": "uint256"
        }
      ],
      "name": "ChangeNewCreateNFTPrice",
      "outputs": [
        {
          "internalType": "bool",
          "name": "",
          "type": "bool"
        }
      ],
      "stateMutability": "nonpayable",
      "type": "function"
    },
    {
      "inputs": [
        {
          "internalType": "uint256",
          "name": "value",
          "type": "uint256"
        }
      ],
      "name": "setDefaultFee",
      "outputs": [
        {
          "internalType": "bool",
          "name": "",
          "type": "bool"
        }
      ],
      "stateMutability": "nonpayable",
      "type": "function"
    },
    {
      "inputs": [
        {
          "internalType": "uint256",
          "name": "value",
          "type": "uint256"
        }
      ],
      "name": "setDefaultTime",
      "outputs": [
        {
          "internalType": "bool",
          "name": "",
          "type": "bool"
        }
      ],
      "stateMutability": "nonpayable",
      "type": "function"
    }
  ],
  "bytecode": "0x60806040526107086009556019600a5566038d7ea4c68000600b553480156200002757600080fd5b506040518060400160405280600781526020017f41524953776170000000000000000000000000000000000000000000000000008152506040518060400160405280600381526020017f41524900000000000000000000000000000000000000000000000000000000008152508160009080519060200190620000ac929190620001bc565b508060019080519060200190620000c5929190620001bc565b505050620000e8620000dc620000ee60201b60201c565b620000f660201b60201c565b620002d1565b600033905090565b6000600760009054906101000a900473ffffffffffffffffffffffffffffffffffffffff16905081600760006101000a81548173ffffffffffffffffffffffffffffffffffffffff021916908373ffffffffffffffffffffffffffffffffffffffff1602179055508173ffffffffffffffffffffffffffffffffffffffff168173ffffffffffffffffffffffffffffffffffffffff167f8be0079c531659141344cd1fd0a4f28419497f9722a3daafe3b4186f6b6457e060405160405180910390a35050565b828054620001ca906200029b565b90600052602060002090601f016020900481019282620001ee57600085556200023a565b82601f106200020957805160ff19168380011785556200023a565b828001600101855582156200023a579182015b82811115620002395782518255916020019190600101906200021c565b5b5090506200024991906200024d565b5090565b5b80821115620002685760008160009055506001016200024e565b5090565b7f4e487b7100000000000000000000000000000000000000000000000000000000600052602260045260246000fd5b60006002820490506001821680620002b457607f821691505b60208210811415620002cb57620002ca6200026c565b5b50919050565b61584880620002e16000396000f3fe60806040526004361061021e5760003560e01c80638da5cb5b11610123578063b88d4fde116100ab578063e5f0f5901161006f578063e5f0f5901461086c578063e8f7a25e146108a9578063e985e9c5146108e6578063ecffa07d14610923578063f2fde38b1461096057610225565b8063b88d4fde14610763578063c40983021461078c578063c815729d146107c9578063c87b56dd146107f2578063c93a6c841461082f57610225565b80639979ef45116100f25780639979ef451461068c578063a1448194146106a8578063a22cb465146106d1578063aa46a400146106fa578063aee2190e1461072557610225565b80638da5cb5b146105b257806395d89b41146105dd578063971d3d761461060857806397a6d4541461064a57610225565b80633fd72e8e116101a65780636352211e116101755780636352211e146104b4578063708ad7e5146104f157806370a082311461052e578063715018a61461056b5780637cf87f9d1461058257610225565b80633fd72e8e146103d457806342842e0e14610411578063446053811461043a57806358226e3c1461047757610225565b806316a7332f116101ed57806316a7332f146102f857806319ebc3d71461032357806323b872dd14610364578063313759241461038d5780633ccfd60b146103bd57610225565b806301ffc9a71461022a57806306fdde0314610267578063081812fc14610292578063095ea7b3146102cf57610225565b3661022557005b600080fd5b34801561023657600080fd5b50610251600480360381019061024c9190613c78565b610989565b60405161025e9190613cc0565b60405180910390f35b34801561027357600080fd5b5061027c610a6b565b6040516102899190613d74565b60405180910390f35b34801561029e57600080fd5b506102b960048036038101906102b49190613dcc565b610afd565b6040516102c69190613e3a565b60405180910390f35b3480156102db57600080fd5b506102f660048036038101906102f19190613e81565b610b82565b005b34801561030457600080fd5b5061030d610c9a565b60405161031a9190613ed0565b60405180910390f35b34801561032f57600080fd5b5061034a60048036038101906103459190613dcc565b610ca0565b60405161035b959493929190613eeb565b60405180910390f35b34801561037057600080fd5b5061038b60048036038101906103869190613f3e565b610d23565b005b6103a760048036038101906103a29190613dcc565b610d83565b6040516103b49190613cc0565b60405180910390f35b3480156103c957600080fd5b506103d2610eba565b005b3480156103e057600080fd5b506103fb60048036038101906103f69190613dcc565b610f86565b6040516104089190613cc0565b60405180910390f35b34801561041d57600080fd5b5061043860048036038101906104339190613f3e565b611014565b005b34801561044657600080fd5b50610461600480360381019061045c9190613f91565b611034565b60405161046e9190613cc0565b60405180910390f35b34801561048357600080fd5b5061049e60048036038101906104999190613fd1565b61112f565b6040516104ab9190613ed0565b60405180910390f35b3480156104c057600080fd5b506104db60048036038101906104d69190613dcc565b611147565b6040516104e89190613e3a565b60405180910390f35b3480156104fd57600080fd5b5061051860048036038101906105139190613dcc565b6111f9565b6040516105259190613cc0565b60405180910390f35b34801561053a57600080fd5b5061055560048036038101906105509190613fd1565b6113ef565b6040516105629190613ed0565b60405180910390f35b34801561057757600080fd5b506105806114a7565b005b61059c60048036038101906105979190614133565b61152f565b6040516105a99190613ed0565b60405180910390f35b3480156105be57600080fd5b506105c76115ad565b6040516105d49190613e3a565b60405180910390f35b3480156105e957600080fd5b506105f26115d7565b6040516105ff9190613d74565b60405180910390f35b34801561061457600080fd5b5061062f600480360381019061062a9190613dcc565b611669565b6040516106419695949392919061418f565b60405180910390f35b34801561065657600080fd5b50610671600480360381019061066c9190613dcc565b6116d2565b6040516106839695949392919061418f565b60405180910390f35b6106a660048036038101906106a19190613dcc565b6117a7565b005b3480156106b457600080fd5b506106cf60048036038101906106ca9190613e81565b611b75565b005b3480156106dd57600080fd5b506106f860048036038101906106f3919061421c565b611bff565b005b34801561070657600080fd5b5061070f611d80565b60405161071c9190613ed0565b60405180910390f35b34801561073157600080fd5b5061074c60048036038101906107479190613e81565b611d86565b60405161075a92919061425c565b60405180910390f35b34801561076f57600080fd5b5061078a60048036038101906107859190614326565b611dc4565b005b34801561079857600080fd5b506107b360048036038101906107ae9190613dcc565b611e26565b6040516107c09190613cc0565b60405180910390f35b3480156107d557600080fd5b506107f060048036038101906107eb9190613dcc565b611eb4565b005b3480156107fe57600080fd5b5061081960048036038101906108149190613dcc565b612309565b6040516108269190613d74565b60405180910390f35b34801561083b57600080fd5b5061085660048036038101906108519190613dcc565b61231b565b6040516108639190613cc0565b60405180910390f35b34801561087857600080fd5b50610893600480360381019061088e9190613dcc565b6123a9565b6040516108a09190613cc0565b60405180910390f35b3480156108b557600080fd5b506108d060048036038101906108cb9190613dcc565b6124e9565b6040516108dd9190613cc0565b60405180910390f35b3480156108f257600080fd5b5061090d600480360381019061090891906143a9565b6128b9565b60405161091a9190613cc0565b60405180910390f35b34801561092f57600080fd5b5061094a60048036038101906109459190613dcc565b61294d565b6040516109579190613cc0565b60405180910390f35b34801561096c57600080fd5b5061098760048036038101906109829190613fd1565b612a49565b005b60007f80ac58cd000000000000000000000000000000000000000000000000000000007bffffffffffffffffffffffffffffffffffffffffffffffffffffffff1916827bffffffffffffffffffffffffffffffffffffffffffffffffffffffff19161480610a5457507f5b5e139f000000000000000000000000000000000000000000000000000000007bffffffffffffffffffffffffffffffffffffffffffffffffffffffff1916827bffffffffffffffffffffffffffffffffffffffffffffffffffffffff1916145b80610a645750610a6382612b41565b5b9050919050565b606060008054610a7a90614418565b80601f0160208091040260200160405190810160405280929190818152602001828054610aa690614418565b8015610af35780601f10610ac857610100808354040283529160200191610af3565b820191906000526020600020905b815481529060010190602001808311610ad657829003601f168201915b5050505050905090565b6000610b0882612bab565b610b47576040517f08c379a0000000000000000000000000000000000000000000000000000000008152600401610b3e906144bc565b60405180910390fd5b6004600083815260200190815260200160002060009054906101000a900473ffffffffffffffffffffffffffffffffffffffff169050919050565b6000610b8d82611147565b90508073ffffffffffffffffffffffffffffffffffffffff168373ffffffffffffffffffffffffffffffffffffffff161415610bfe576040517f08c379a0000000000000000000000000000000000000000000000000000000008152600401610bf59061454e565b60405180910390fd5b8073ffffffffffffffffffffffffffffffffffffffff16610c1d612c17565b73ffffffffffffffffffffffffffffffffffffffff161480610c4c5750610c4b81610c46612c17565b6128b9565b5b610c8b576040517f08c379a0000000000000000000000000000000000000000000000000000000008152600401610c82906145e0565b60405180910390fd5b610c958383612c1f565b505050565b600b5481565b600c6020528060005260406000206000915090508060000154908060010160009054906101000a900473ffffffffffffffffffffffffffffffffffffffff16908060020154908060030160009054906101000a900473ffffffffffffffffffffffffffffffffffffffff16908060030160149054906101000a900460ff16905085565b610d34610d2e612c17565b82612cd8565b610d73576040517f08c379a0000000000000000000000000000000000000000000000000000000008152600401610d6a90614672565b60405180910390fd5b610d7e838383612db6565b505050565b6000600c600083815260200190815260200160002060000154341015610dde576040517f08c379a0000000000000000000000000000000000000000000000000000000008152600401610dd5906146de565b60405180910390fd5b600c600083815260200190815260200160002060030160149054906101000a900460ff16610e41576040517f08c379a0000000000000000000000000000000000000000000000000000000008152600401610e389061474a565b60405180910390fd5b34600c60008481526020019081526020016000206002018190555033600c600084815260200190815260200160002060030160006101000a81548173ffffffffffffffffffffffffffffffffffffffff021916908373ffffffffffffffffffffffffffffffffffffffff16021790555060019050919050565b610ec2612c17565b73ffffffffffffffffffffffffffffffffffffffff16610ee06115ad565b73ffffffffffffffffffffffffffffffffffffffff1614610f36576040517f08c379a0000000000000000000000000000000000000000000000000000000008152600401610f2d906147b6565b60405180910390fd5b610f3e6115ad565b73ffffffffffffffffffffffffffffffffffffffff166108fc479081150290604051600060405180830381858888f19350505050158015610f83573d6000803e3d6000fd5b50565b6000610f90612c17565b73ffffffffffffffffffffffffffffffffffffffff16610fae6115ad565b73ffffffffffffffffffffffffffffffffffffffff1614611004576040517f08c379a0000000000000000000000000000000000000000000000000000000008152600401610ffb906147b6565b60405180910390fd5b8160098190555060019050919050565b61102f83838360405180602001604052806000815250611dc4565b505050565b6000823373ffffffffffffffffffffffffffffffffffffffff1661105782611147565b73ffffffffffffffffffffffffffffffffffffffff16146110ad576040517f08c379a00000000000000000000000000000000000000000000000000000000081526004016110a490614822565b60405180910390fd5b6001600d600086815260200190815260200160002060010160006101000a81548160ff02191690831515021790555042600d60008681526020019081526020016000206002018190555061110a834261301290919063ffffffff16565b600d600086815260200190815260200160002060030181905550600191505092915050565b600e6020528060005260406000206000915090505481565b6000806002600084815260200190815260200160002060009054906101000a900473ffffffffffffffffffffffffffffffffffffffff169050600073ffffffffffffffffffffffffffffffffffffffff168173ffffffffffffffffffffffffffffffffffffffff1614156111f0576040517f08c379a00000000000000000000000000000000000000000000000000000000081526004016111e7906148b4565b60405180910390fd5b80915050919050565b6000600f60003373ffffffffffffffffffffffffffffffffffffffff1673ffffffffffffffffffffffffffffffffffffffff1681526020019081526020016000206000600d600085815260200190815260200160002060000154815260200190815260200160002060010160009054906101000a900460ff166112b1576040517f08c379a00000000000000000000000000000000000000000000000000000000081526004016112a890614920565b60405180910390fd5b3373ffffffffffffffffffffffffffffffffffffffff166108fc600f60003373ffffffffffffffffffffffffffffffffffffffff1673ffffffffffffffffffffffffffffffffffffffff1681526020019081526020016000206000600d6000878152602001908152602001600020600001548152602001908152602001600020600001549081150290604051600060405180830381858888f19350505050158015611360573d6000803e3d6000fd5b50600f60003373ffffffffffffffffffffffffffffffffffffffff1673ffffffffffffffffffffffffffffffffffffffff1681526020019081526020016000206000600d60008581526020019081526020016000206000015481526020019081526020016000206000808201600090556001820160006101000a81549060ff0219169055505060019050919050565b60008073ffffffffffffffffffffffffffffffffffffffff168273ffffffffffffffffffffffffffffffffffffffff161415611460576040517f08c379a0000000000000000000000000000000000000000000000000000000008152600401611457906149b2565b60405180910390fd5b600360008373ffffffffffffffffffffffffffffffffffffffff1673ffffffffffffffffffffffffffffffffffffffff168152602001908152602001600020549050919050565b6114af612c17565b73ffffffffffffffffffffffffffffffffffffffff166114cd6115ad565b73ffffffffffffffffffffffffffffffffffffffff1614611523576040517f08c379a000000000000000000000000000000000000000000000000000000000815260040161151a906147b6565b60405180910390fd5b61152d6000613070565b565b6000600b54341015611576576040517f08c379a000000000000000000000000000000000000000000000000000000000815260040161156d90614a1e565b60405180910390fd5b6008600081548092919061158990614a6d565b9190505550600854905061159d8382613136565b6115a78183613154565b92915050565b6000600760009054906101000a900473ffffffffffffffffffffffffffffffffffffffff16905090565b6060600180546115e690614418565b80601f016020809104026020016040519081016040528092919081815260200182805461161290614418565b801561165f5780601f106116345761010080835404028352916020019161165f565b820191906000526020600020905b81548152906001019060200180831161164257829003601f168201915b5050505050905090565b600d6020528060005260406000206000915090508060000154908060010160009054906101000a900460ff16908060020154908060030154908060040154908060050160009054906101000a900473ffffffffffffffffffffffffffffffffffffffff16905086565b600080600080600080600d600088815260200190815260200160002060000154600d600089815260200190815260200160002060010160009054906101000a900460ff16600d60008a815260200190815260200160002060020154600d60008b815260200190815260200160002060030154600d60008c815260200190815260200160002060040154600d60008d815260200190815260200160002060050160009054906101000a900473ffffffffffffffffffffffffffffffffffffffff1695509550955095509550955091939550919395565b600d600082815260200190815260200160002060010160009054906101000a900460ff1661180a576040517f08c379a000000000000000000000000000000000000000000000000000000000815260040161180190614b02565b60405180910390fd5b600d600082815260200190815260200160002060030154421115611863576040517f08c379a000000000000000000000000000000000000000000000000000000000815260040161185a90614b6e565b60405180910390fd5b600034116118a6576040517f08c379a000000000000000000000000000000000000000000000000000000000815260040161189d90614bda565b60405180910390fd5b6118af81612bab565b6118ee576040517f08c379a00000000000000000000000000000000000000000000000000000000081526004016118e590614c46565b60405180910390fd5b34600d60008381526020019081526020016000206004015410611946576040517f08c379a000000000000000000000000000000000000000000000000000000000815260040161193d90614cd8565b60405180910390fd5b6119706001600d60008481526020019081526020016000206000015461301290919063ffffffff16565b600d60008381526020019081526020016000206000018190555034600d60008381526020019081526020016000206004018190555033600d600083815260200190815260200160002060050160006101000a81548173ffffffffffffffffffffffffffffffffffffffff021916908373ffffffffffffffffffffffffffffffffffffffff160217905550600d600082815260200190815260200160002060000154600e60003373ffffffffffffffffffffffffffffffffffffffff1673ffffffffffffffffffffffffffffffffffffffff1681526020019081526020016000208190555034600f60003373ffffffffffffffffffffffffffffffffffffffff1673ffffffffffffffffffffffffffffffffffffffff1681526020019081526020016000206000600d6000858152602001908152602001600020600001548152602001908152602001600020600001819055506001600f60003373ffffffffffffffffffffffffffffffffffffffff1673ffffffffffffffffffffffffffffffffffffffff1681526020019081526020016000206000600d600085815260200190815260200160002060000154815260200190815260200160002060010160006101000a81548160ff02191690831515021790555034817f6299c7417131e904ef620f0a7c7e1ef5bab26a3082229e937ae0925a8897b41460405160405180910390a350565b611b7d612c17565b73ffffffffffffffffffffffffffffffffffffffff16611b9b6115ad565b73ffffffffffffffffffffffffffffffffffffffff1614611bf1576040517f08c379a0000000000000000000000000000000000000000000000000000000008152600401611be8906147b6565b60405180910390fd5b611bfb8282613136565b5050565b611c07612c17565b73ffffffffffffffffffffffffffffffffffffffff168273ffffffffffffffffffffffffffffffffffffffff161415611c75576040517f08c379a0000000000000000000000000000000000000000000000000000000008152600401611c6c90614d44565b60405180910390fd5b8060056000611c82612c17565b73ffffffffffffffffffffffffffffffffffffffff1673ffffffffffffffffffffffffffffffffffffffff16815260200190815260200160002060008473ffffffffffffffffffffffffffffffffffffffff1673ffffffffffffffffffffffffffffffffffffffff16815260200190815260200160002060006101000a81548160ff0219169083151502179055508173ffffffffffffffffffffffffffffffffffffffff16611d2f612c17565b73ffffffffffffffffffffffffffffffffffffffff167f17307eab39ab6107e8899845ad3d59bd9653f200f220920489ca2b5937696c3183604051611d749190613cc0565b60405180910390a35050565b60085481565b600f602052816000526040600020602052806000526040600020600091509150508060000154908060010160009054906101000a900460ff16905082565b611dd5611dcf612c17565b83612cd8565b611e14576040517f08c379a0000000000000000000000000000000000000000000000000000000008152600401611e0b90614672565b60405180910390fd5b611e20848484846131c8565b50505050565b6000611e30612c17565b73ffffffffffffffffffffffffffffffffffffffff16611e4e6115ad565b73ffffffffffffffffffffffffffffffffffffffff1614611ea4576040517f08c379a0000000000000000000000000000000000000000000000000000000008152600401611e9b906147b6565b60405180910390fd5b81600b8190555060019050919050565b803373ffffffffffffffffffffffffffffffffffffffff16611ed582611147565b73ffffffffffffffffffffffffffffffffffffffff1614611f2b576040517f08c379a0000000000000000000000000000000000000000000000000000000008152600401611f2290614822565b60405180910390fd5b3373ffffffffffffffffffffffffffffffffffffffff16611f4b83611147565b73ffffffffffffffffffffffffffffffffffffffff1614611fa1576040517f08c379a0000000000000000000000000000000000000000000000000000000008152600401611f9890614822565b60405180910390fd5b611faa82612bab565b611fe9576040517f08c379a0000000000000000000000000000000000000000000000000000000008152600401611fe090614c46565b60405180910390fd5b600073ffffffffffffffffffffffffffffffffffffffff16600d600084815260200190815260200160002060050160009054906101000a900473ffffffffffffffffffffffffffffffffffffffff1673ffffffffffffffffffffffffffffffffffffffff16141561208f576040517f08c379a000000000000000000000000000000000000000000000000000000000815260040161208690614db0565b60405180910390fd5b61210633600d600085815260200190815260200160002060050160009054906101000a900473ffffffffffffffffffffffffffffffffffffffff16846040518060400160405280600281526020017f30780000000000000000000000000000000000000000000000000000000000008152506131c8565b6000339050600061214c6121276103e8600a5461322490919063ffffffff16565b600d60008781526020019081526020016000206004015461326e90919063ffffffff16565b90508173ffffffffffffffffffffffffffffffffffffffff166108fc61219183600d6000898152602001908152602001600020600401546132e990919063ffffffff16565b9081150290604051600060405180830381858888f193505050501580156121bc573d6000803e3d6000fd5b506121c56115ad565b73ffffffffffffffffffffffffffffffffffffffff166108fc829081150290604051600060405180830381858888f1935050505015801561220a573d6000803e3d6000fd5b50600d60008581526020019081526020016000206000808201600090556001820160006101000a81549060ff02191690556002820160009055600382016000905560048201600090556005820160006101000a81549073ffffffffffffffffffffffffffffffffffffffff02191690555050600d600085815260200190815260200160002060040154847fffa8e4adef20403a71fedeb00a7d0c21f7c714855d9ac581923d2c44cc6f108033600d600089815260200190815260200160002060050160009054906101000a900473ffffffffffffffffffffffffffffffffffffffff166040516122fb929190614dd0565b60405180910390a350505050565b606061231482613333565b9050919050565b6000612325612c17565b73ffffffffffffffffffffffffffffffffffffffff166123436115ad565b73ffffffffffffffffffffffffffffffffffffffff1614612399576040517f08c379a0000000000000000000000000000000000000000000000000000000008152600401612390906147b6565b60405180910390fd5b81600a8190555060019050919050565b6000813373ffffffffffffffffffffffffffffffffffffffff166123cc82611147565b73ffffffffffffffffffffffffffffffffffffffff1614612422576040517f08c379a000000000000000000000000000000000000000000000000000000000815260040161241990614822565b60405180910390fd5b33600c600085815260200190815260200160002060010160006101000a81548173ffffffffffffffffffffffffffffffffffffffff021916908373ffffffffffffffffffffffffffffffffffffffff1602179055506001600c600085815260200190815260200160002060030160146101000a81548160ff0219169083151502179055507f5332eba8dc6f99e59342e6b954d24492147f4c104f6149e4ee4a37a352cbfcf333846040516124d7929190614df9565b60405180910390a16001915050919050565b6000813373ffffffffffffffffffffffffffffffffffffffff1661250c82611147565b73ffffffffffffffffffffffffffffffffffffffff1614612562576040517f08c379a000000000000000000000000000000000000000000000000000000000815260040161255990614822565b60405180910390fd5b600073ffffffffffffffffffffffffffffffffffffffff16600c600085815260200190815260200160002060030160009054906101000a900473ffffffffffffffffffffffffffffffffffffffff1673ffffffffffffffffffffffffffffffffffffffff161415612608576040517f08c379a00000000000000000000000000000000000000000000000000000000081526004016125ff90614e6e565b60405180910390fd5b61267f33600c600086815260200190815260200160002060030160009054906101000a900473ffffffffffffffffffffffffffffffffffffffff16856040518060400160405280600281526020017f30780000000000000000000000000000000000000000000000000000000000008152506131c8565b60006126c061269b6103e8600a5461322490919063ffffffff16565b600d60008781526020019081526020016000206004015461326e90919063ffffffff16565b9050600c600085815260200190815260200160002060010160009054906101000a900473ffffffffffffffffffffffffffffffffffffffff1673ffffffffffffffffffffffffffffffffffffffff166108fc61273b83600c6000898152602001908152602001600020600201546132e990919063ffffffff16565b9081150290604051600060405180830381858888f19350505050158015612766573d6000803e3d6000fd5b5061276f6115ad565b73ffffffffffffffffffffffffffffffffffffffff166108fc829081150290604051600060405180830381858888f193505050501580156127b4573d6000803e3d6000fd5b50600c60008581526020019081526020016000206000808201600090556001820160006101000a81549073ffffffffffffffffffffffffffffffffffffffff021916905560028201600090556003820160006101000a81549073ffffffffffffffffffffffffffffffffffffffff02191690556003820160146101000a81549060ff021916905550507fbf760d4ee9b25ad2478519414322ed3de7569c54912c4265ff64df60b8d62993600c600086815260200190815260200160002060010160009054906101000a900473ffffffffffffffffffffffffffffffffffffffff1633866040516128a693929190614e8e565b60405180910390a1600192505050919050565b6000600560008473ffffffffffffffffffffffffffffffffffffffff1673ffffffffffffffffffffffffffffffffffffffff16815260200190815260200160002060008373ffffffffffffffffffffffffffffffffffffffff1673ffffffffffffffffffffffffffffffffffffffff16815260200190815260200160002060009054906101000a900460ff16905092915050565b6000813373ffffffffffffffffffffffffffffffffffffffff1661297082611147565b73ffffffffffffffffffffffffffffffffffffffff16146129c6576040517f08c379a00000000000000000000000000000000000000000000000000000000081526004016129bd90614822565b60405180910390fd5b6001600d600085815260200190815260200160002060010160006101000a81548160ff02191690831515021790555042600d600085815260200190815260200160002060020181905550612a256009544261301290919063ffffffff16565b600d6000858152602001908152602001600020600301819055506001915050919050565b612a51612c17565b73ffffffffffffffffffffffffffffffffffffffff16612a6f6115ad565b73ffffffffffffffffffffffffffffffffffffffff1614612ac5576040517f08c379a0000000000000000000000000000000000000000000000000000000008152600401612abc906147b6565b60405180910390fd5b600073ffffffffffffffffffffffffffffffffffffffff168173ffffffffffffffffffffffffffffffffffffffff161415612b35576040517f08c379a0000000000000000000000000000000000000000000000000000000008152600401612b2c90614f37565b60405180910390fd5b612b3e81613070565b50565b60007f01ffc9a7000000000000000000000000000000000000000000000000000000007bffffffffffffffffffffffffffffffffffffffffffffffffffffffff1916827bffffffffffffffffffffffffffffffffffffffffffffffffffffffff1916149050919050565b60008073ffffffffffffffffffffffffffffffffffffffff166002600084815260200190815260200160002060009054906101000a900473ffffffffffffffffffffffffffffffffffffffff1673ffffffffffffffffffffffffffffffffffffffff1614159050919050565b600033905090565b816004600083815260200190815260200160002060006101000a81548173ffffffffffffffffffffffffffffffffffffffff021916908373ffffffffffffffffffffffffffffffffffffffff160217905550808273ffffffffffffffffffffffffffffffffffffffff16612c9283611147565b73ffffffffffffffffffffffffffffffffffffffff167f8c5be1e5ebec7d5bd14f71427d1e84f3dd0314c0f7b2291e5b200ac8c7c3b92560405160405180910390a45050565b6000612ce382612bab565b612d22576040517f08c379a0000000000000000000000000000000000000000000000000000000008152600401612d1990614fc9565b60405180910390fd5b6000612d2d83611147565b90508073ffffffffffffffffffffffffffffffffffffffff168473ffffffffffffffffffffffffffffffffffffffff161480612d9c57508373ffffffffffffffffffffffffffffffffffffffff16612d8484610afd565b73ffffffffffffffffffffffffffffffffffffffff16145b80612dad5750612dac81856128b9565b5b91505092915050565b8273ffffffffffffffffffffffffffffffffffffffff16612dd682611147565b73ffffffffffffffffffffffffffffffffffffffff1614612e2c576040517f08c379a0000000000000000000000000000000000000000000000000000000008152600401612e239061505b565b60405180910390fd5b600073ffffffffffffffffffffffffffffffffffffffff168273ffffffffffffffffffffffffffffffffffffffff161415612e9c576040517f08c379a0000000000000000000000000000000000000000000000000000000008152600401612e93906150ed565b60405180910390fd5b612ea7838383613485565b612eb2600082612c1f565b6001600360008573ffffffffffffffffffffffffffffffffffffffff1673ffffffffffffffffffffffffffffffffffffffff1681526020019081526020016000206000828254612f02919061510d565b925050819055506001600360008473ffffffffffffffffffffffffffffffffffffffff1673ffffffffffffffffffffffffffffffffffffffff1681526020019081526020016000206000828254612f599190615141565b92505081905550816002600083815260200190815260200160002060006101000a81548173ffffffffffffffffffffffffffffffffffffffff021916908373ffffffffffffffffffffffffffffffffffffffff160217905550808273ffffffffffffffffffffffffffffffffffffffff168473ffffffffffffffffffffffffffffffffffffffff167fddf252ad1be2c89b69c2b068fc378daa952ba7f163c4a11628f55a4df523b3ef60405160405180910390a4505050565b60008082846130219190615141565b905083811015613066576040517f08c379a000000000000000000000000000000000000000000000000000000000815260040161305d906151e3565b60405180910390fd5b8091505092915050565b6000600760009054906101000a900473ffffffffffffffffffffffffffffffffffffffff16905081600760006101000a81548173ffffffffffffffffffffffffffffffffffffffff021916908373ffffffffffffffffffffffffffffffffffffffff1602179055508173ffffffffffffffffffffffffffffffffffffffff168173ffffffffffffffffffffffffffffffffffffffff167f8be0079c531659141344cd1fd0a4f28419497f9722a3daafe3b4186f6b6457e060405160405180910390a35050565b61315082826040518060200160405280600081525061348a565b5050565b61315d82612bab565b61319c576040517f08c379a000000000000000000000000000000000000000000000000000000000815260040161319390615275565b60405180910390fd5b806006600084815260200190815260200160002090805190602001906131c3929190613b69565b505050565b6131d3848484612db6565b6131df848484846134e5565b61321e576040517f08c379a000000000000000000000000000000000000000000000000000000000815260040161321590615307565b60405180910390fd5b50505050565b600061326683836040518060400160405280601a81526020017f536166654d6174683a206469766973696f6e206279207a65726f00000000000081525061367c565b905092915050565b60008083141561328157600090506132e3565b6000828461328f9190615327565b905082848261329e91906153b0565b146132de576040517f08c379a00000000000000000000000000000000000000000000000000000000081526004016132d590615453565b60405180910390fd5b809150505b92915050565b600061332b83836040518060400160405280601e81526020017f536166654d6174683a207375627472616374696f6e206f766572666c6f7700008152506136df565b905092915050565b606061333e82612bab565b61337d576040517f08c379a0000000000000000000000000000000000000000000000000000000008152600401613374906154e5565b60405180910390fd5b600060066000848152602001908152602001600020805461339d90614418565b80601f01602080910402602001604051908101604052809291908181526020018280546133c990614418565b80156134165780601f106133eb57610100808354040283529160200191613416565b820191906000526020600020905b8154815290600101906020018083116133f957829003601f168201915b505050505090506000613427613743565b905060008151141561343d578192505050613480565b60008251111561347257808260405160200161345a929190615541565b60405160208183030381529060405292505050613480565b61347b84613780565b925050505b919050565b505050565b6134948383613827565b6134a160008484846134e5565b6134e0576040517f08c379a00000000000000000000000000000000000000000000000000000000081526004016134d790615307565b60405180910390fd5b505050565b60006135068473ffffffffffffffffffffffffffffffffffffffff166139f5565b1561366f578373ffffffffffffffffffffffffffffffffffffffff1663150b7a0261352f612c17565b8786866040518563ffffffff1660e01b815260040161355194939291906155ba565b602060405180830381600087803b15801561356b57600080fd5b505af192505050801561359c57506040513d601f19601f82011682018060405250810190613599919061561b565b60015b61361f573d80600081146135cc576040519150601f19603f3d011682016040523d82523d6000602084013e6135d1565b606091505b50600081511415613617576040517f08c379a000000000000000000000000000000000000000000000000000000000815260040161360e90615307565b60405180910390fd5b805181602001fd5b63150b7a0260e01b7bffffffffffffffffffffffffffffffffffffffffffffffffffffffff1916817bffffffffffffffffffffffffffffffffffffffffffffffffffffffff191614915050613674565b600190505b949350505050565b600080831182906136c3576040517f08c379a00000000000000000000000000000000000000000000000000000000081526004016136ba9190613d74565b60405180910390fd5b50600083856136d291906153b0565b9050809150509392505050565b6000838311158290613727576040517f08c379a000000000000000000000000000000000000000000000000000000000815260040161371e9190613d74565b60405180910390fd5b5060008385613736919061510d565b9050809150509392505050565b60606040518060400160405280601081526020017f68747470733a2f2f697066732e696f2f00000000000000000000000000000000815250905090565b606061378b82612bab565b6137ca576040517f08c379a00000000000000000000000000000000000000000000000000000000081526004016137c1906156ba565b60405180910390fd5b60006137d4613743565b905060008151116137f4576040518060200160405280600081525061381f565b806137fe84613a08565b60405160200161380f929190615541565b6040516020818303038152906040525b915050919050565b600073ffffffffffffffffffffffffffffffffffffffff168273ffffffffffffffffffffffffffffffffffffffff161415613897576040517f08c379a000000000000000000000000000000000000000000000000000000000815260040161388e90615726565b60405180910390fd5b6138a081612bab565b156138e0576040517f08c379a00000000000000000000000000000000000000000000000000000000081526004016138d790615792565b60405180910390fd5b6138ec60008383613485565b6001600360008473ffffffffffffffffffffffffffffffffffffffff1673ffffffffffffffffffffffffffffffffffffffff168152602001908152602001600020600082825461393c9190615141565b92505081905550816002600083815260200190815260200160002060006101000a81548173ffffffffffffffffffffffffffffffffffffffff021916908373ffffffffffffffffffffffffffffffffffffffff160217905550808273ffffffffffffffffffffffffffffffffffffffff16600073ffffffffffffffffffffffffffffffffffffffff167fddf252ad1be2c89b69c2b068fc378daa952ba7f163c4a11628f55a4df523b3ef60405160405180910390a45050565b600080823b905060008111915050919050565b60606000821415613a50576040518060400160405280600181526020017f30000000000000000000000000000000000000000000000000000000000000008152509050613b64565b600082905060005b60008214613a82578080613a6b90614a6d565b915050600a82613a7b91906153b0565b9150613a58565b60008167ffffffffffffffff811115613a9e57613a9d614008565b5b6040519080825280601f01601f191660200182016040528015613ad05781602001600182028036833780820191505090505b5090505b60008514613b5d57600182613ae9919061510d565b9150600a85613af891906157b2565b6030613b049190615141565b60f81b818381518110613b1a57613b196157e3565b5b60200101907effffffffffffffffffffffffffffffffffffffffffffffffffffffffffffff1916908160001a905350600a85613b5691906153b0565b9450613ad4565b8093505050505b919050565b828054613b7590614418565b90600052602060002090601f016020900481019282613b975760008555613bde565b82601f10613bb057805160ff1916838001178555613bde565b82800160010185558215613bde579182015b82811115613bdd578251825591602001919060010190613bc2565b5b509050613beb9190613bef565b5090565b5b80821115613c08576000816000905550600101613bf0565b5090565b6000604051905090565b600080fd5b600080fd5b60007fffffffff0000000000000000000000000000000000000000000000000000000082169050919050565b613c5581613c20565b8114613c6057600080fd5b50565b600081359050613c7281613c4c565b92915050565b600060208284031215613c8e57613c8d613c16565b5b6000613c9c84828501613c63565b91505092915050565b60008115159050919050565b613cba81613ca5565b82525050565b6000602082019050613cd56000830184613cb1565b92915050565b600081519050919050565b600082825260208201905092915050565b60005b83811015613d15578082015181840152602081019050613cfa565b83811115613d24576000848401525b50505050565b6000601f19601f8301169050919050565b6000613d4682613cdb565b613d508185613ce6565b9350613d60818560208601613cf7565b613d6981613d2a565b840191505092915050565b60006020820190508181036000830152613d8e8184613d3b565b905092915050565b6000819050919050565b613da981613d96565b8114613db457600080fd5b50565b600081359050613dc681613da0565b92915050565b600060208284031215613de257613de1613c16565b5b6000613df084828501613db7565b91505092915050565b600073ffffffffffffffffffffffffffffffffffffffff82169050919050565b6000613e2482613df9565b9050919050565b613e3481613e19565b82525050565b6000602082019050613e4f6000830184613e2b565b92915050565b613e5e81613e19565b8114613e6957600080fd5b50565b600081359050613e7b81613e55565b92915050565b60008060408385031215613e9857613e97613c16565b5b6000613ea685828601613e6c565b9250506020613eb785828601613db7565b9150509250929050565b613eca81613d96565b82525050565b6000602082019050613ee56000830184613ec1565b92915050565b600060a082019050613f006000830188613ec1565b613f0d6020830187613e2b565b613f1a6040830186613ec1565b613f276060830185613e2b565b613f346080830184613cb1565b9695505050505050565b600080600060608486031215613f5757613f56613c16565b5b6000613f6586828701613e6c565b9350506020613f7686828701613e6c565b9250506040613f8786828701613db7565b9150509250925092565b60008060408385031215613fa857613fa7613c16565b5b6000613fb685828601613db7565b9250506020613fc785828601613db7565b9150509250929050565b600060208284031215613fe757613fe6613c16565b5b6000613ff584828501613e6c565b91505092915050565b600080fd5b600080fd5b7f4e487b7100000000000000000000000000000000000000000000000000000000600052604160045260246000fd5b61404082613d2a565b810181811067ffffffffffffffff8211171561405f5761405e614008565b5b80604052505050565b6000614072613c0c565b905061407e8282614037565b919050565b600067ffffffffffffffff82111561409e5761409d614008565b5b6140a782613d2a565b9050602081019050919050565b82818337600083830152505050565b60006140d66140d184614083565b614068565b9050828152602081018484840111156140f2576140f1614003565b5b6140fd8482856140b4565b509392505050565b600082601f83011261411a57614119613ffe565b5b813561412a8482602086016140c3565b91505092915050565b6000806040838503121561414a57614149613c16565b5b600061415885828601613e6c565b925050602083013567ffffffffffffffff81111561417957614178613c1b565b5b61418585828601614105565b9150509250929050565b600060c0820190506141a46000830189613ec1565b6141b16020830188613cb1565b6141be6040830187613ec1565b6141cb6060830186613ec1565b6141d86080830185613ec1565b6141e560a0830184613e2b565b979650505050505050565b6141f981613ca5565b811461420457600080fd5b50565b600081359050614216816141f0565b92915050565b6000806040838503121561423357614232613c16565b5b600061424185828601613e6c565b925050602061425285828601614207565b9150509250929050565b60006040820190506142716000830185613ec1565b61427e6020830184613cb1565b9392505050565b600067ffffffffffffffff8211156142a05761429f614008565b5b6142a982613d2a565b9050602081019050919050565b60006142c96142c484614285565b614068565b9050828152602081018484840111156142e5576142e4614003565b5b6142f08482856140b4565b509392505050565b600082601f83011261430d5761430c613ffe565b5b813561431d8482602086016142b6565b91505092915050565b600080600080608085870312156143405761433f613c16565b5b600061434e87828801613e6c565b945050602061435f87828801613e6c565b935050604061437087828801613db7565b925050606085013567ffffffffffffffff81111561439157614390613c1b565b5b61439d878288016142f8565b91505092959194509250565b600080604083850312156143c0576143bf613c16565b5b60006143ce85828601613e6c565b92505060206143df85828601613e6c565b9150509250929050565b7f4e487b7100000000000000000000000000000000000000000000000000000000600052602260045260246000fd5b6000600282049050600182168061443057607f821691505b60208210811415614444576144436143e9565b5b50919050565b7f4552433732313a20617070726f76656420717565727920666f72206e6f6e657860008201527f697374656e7420746f6b656e0000000000000000000000000000000000000000602082015250565b60006144a6602c83613ce6565b91506144b18261444a565b604082019050919050565b600060208201905081810360008301526144d581614499565b9050919050565b7f4552433732313a20617070726f76616c20746f2063757272656e74206f776e6560008201527f7200000000000000000000000000000000000000000000000000000000000000602082015250565b6000614538602183613ce6565b9150614543826144dc565b604082019050919050565b600060208201905081810360008301526145678161452b565b9050919050565b7f4552433732313a20617070726f76652063616c6c6572206973206e6f74206f7760008201527f6e6572206e6f7220617070726f76656420666f7220616c6c0000000000000000602082015250565b60006145ca603883613ce6565b91506145d58261456e565b604082019050919050565b600060208201905081810360008301526145f9816145bd565b9050919050565b7f4552433732313a207472616e736665722063616c6c6572206973206e6f74206f60008201527f776e6572206e6f7220617070726f766564000000000000000000000000000000602082015250565b600061465c603183613ce6565b915061466782614600565b604082019050919050565b6000602082019050818103600083015261468b8161464f565b9050919050565b7f73656e64206c6f77657220616d6f756e7420696e206669786564207072696365600082015250565b60006146c8602083613ce6565b91506146d382614692565b602082019050919050565b600060208201905081810360008301526146f7816146bb565b9050919050565b7f54686973204e4654206973206e6f7420666f722073616c650000000000000000600082015250565b6000614734601883613ce6565b915061473f826146fe565b602082019050919050565b6000602082019050818103600083015261476381614727565b9050919050565b7f4f776e61626c653a2063616c6c6572206973206e6f7420746865206f776e6572600082015250565b60006147a0602083613ce6565b91506147ab8261476a565b602082019050919050565b600060208201905081810360008301526147cf81614793565b9050919050565b7f6163636570744f666665723a6f6e6c79206f776e657200000000000000000000600082015250565b600061480c601683613ce6565b9150614817826147d6565b602082019050919050565b6000602082019050818103600083015261483b816147ff565b9050919050565b7f4552433732313a206f776e657220717565727920666f72206e6f6e657869737460008201527f656e7420746f6b656e0000000000000000000000000000000000000000000000602082015250565b600061489e602983613ce6565b91506148a982614842565b604082019050919050565b600060208201905081810360008301526148cd81614891565b9050919050565b7f6469646e27742062696420000000000000000000000000000000000000000000600082015250565b600061490a600b83613ce6565b9150614915826148d4565b602082019050919050565b60006020820190508181036000830152614939816148fd565b9050919050565b7f4552433732313a2062616c616e636520717565727920666f7220746865207a6560008201527f726f206164647265737300000000000000000000000000000000000000000000602082015250565b600061499c602a83613ce6565b91506149a782614940565b604082019050919050565b600060208201905081810360008301526149cb8161498f565b9050919050565b7f496e73756666696369656e7420616d6f756e7400000000000000000000000000600082015250565b6000614a08601383613ce6565b9150614a13826149d2565b602082019050919050565b60006020820190508181036000830152614a37816149fb565b9050919050565b7f4e487b7100000000000000000000000000000000000000000000000000000000600052601160045260246000fd5b6000614a7882613d96565b91507fffffffffffffffffffffffffffffffffffffffffffffffffffffffffffffffff821415614aab57614aaa614a3e565b5b600182019050919050565b7f42696464696e67206973206e6f74206f70656e20796574000000000000000000600082015250565b6000614aec601783613ce6565b9150614af782614ab6565b602082019050919050565b60006020820190508181036000830152614b1b81614adf565b9050919050565b7f42696464696e672074696d6520697320656e6465640000000000000000000000600082015250565b6000614b58601583613ce6565b9150614b6382614b22565b602082019050919050565b60006020820190508181036000830152614b8781614b4b565b9050919050565b7f5072696365206d757374206265206e6f6e2d7a65726f00000000000000000000600082015250565b6000614bc4601683613ce6565b9150614bcf82614b8e565b602082019050919050565b60006020820190508181036000830152614bf381614bb7565b9050919050565b7f4e6f6e2d6578697374656e7420746f6b656e4964000000000000000000000000600082015250565b6000614c30601483613ce6565b9150614c3b82614bfa565b602082019050919050565b60006020820190508181036000830152614c5f81614c23565b9050919050565b7f596f752061726520706179696e67206c6573732070726963652066726f6d207060008201527f726576696f757320626964000000000000000000000000000000000000000000602082015250565b6000614cc2602b83613ce6565b9150614ccd82614c66565b604082019050919050565b60006020820190508181036000830152614cf181614cb5565b9050919050565b7f4552433732313a20617070726f766520746f2063616c6c657200000000000000600082015250565b6000614d2e601983613ce6565b9150614d3982614cf8565b602082019050919050565b60006020820190508181036000830152614d5d81614d21565b9050919050565b7f5468657265206973206e6f2077696e6e65722061646472657373000000000000600082015250565b6000614d9a601a83613ce6565b9150614da582614d64565b602082019050919050565b60006020820190508181036000830152614dc981614d8d565b9050919050565b6000604082019050614de56000830185613e2b565b614df26020830184613e2b565b9392505050565b6000604082019050614e0e6000830185613e2b565b614e1b6020830184613ec1565b9392505050565b7f7468657265206973206e6f20627579657220666f7220746869732073616c6500600082015250565b6000614e58601f83613ce6565b9150614e6382614e22565b602082019050919050565b60006020820190508181036000830152614e8781614e4b565b9050919050565b6000606082019050614ea36000830186613e2b565b614eb06020830185613e2b565b614ebd6040830184613ec1565b949350505050565b7f4f776e61626c653a206e6577206f776e657220697320746865207a65726f206160008201527f6464726573730000000000000000000000000000000000000000000000000000602082015250565b6000614f21602683613ce6565b9150614f2c82614ec5565b604082019050919050565b60006020820190508181036000830152614f5081614f14565b9050919050565b7f4552433732313a206f70657261746f7220717565727920666f72206e6f6e657860008201527f697374656e7420746f6b656e0000000000000000000000000000000000000000602082015250565b6000614fb3602c83613ce6565b9150614fbe82614f57565b604082019050919050565b60006020820190508181036000830152614fe281614fa6565b9050919050565b7f4552433732313a207472616e73666572206f6620746f6b656e2074686174206960008201527f73206e6f74206f776e0000000000000000000000000000000000000000000000602082015250565b6000615045602983613ce6565b915061505082614fe9565b604082019050919050565b6000602082019050818103600083015261507481615038565b9050919050565b7f4552433732313a207472616e7366657220746f20746865207a65726f2061646460008201527f7265737300000000000000000000000000000000000000000000000000000000602082015250565b60006150d7602483613ce6565b91506150e28261507b565b604082019050919050565b60006020820190508181036000830152615106816150ca565b9050919050565b600061511882613d96565b915061512383613d96565b92508282101561513657615135614a3e565b5b828203905092915050565b600061514c82613d96565b915061515783613d96565b9250827fffffffffffffffffffffffffffffffffffffffffffffffffffffffffffffffff0382111561518c5761518b614a3e565b5b828201905092915050565b7f536166654d6174683a206164646974696f6e206f766572666c6f770000000000600082015250565b60006151cd601b83613ce6565b91506151d882615197565b602082019050919050565b600060208201905081810360008301526151fc816151c0565b9050919050565b7f45524337323155524953746f726167653a2055524920736574206f66206e6f6e60008201527f6578697374656e7420746f6b656e000000000000000000000000000000000000602082015250565b600061525f602e83613ce6565b915061526a82615203565b604082019050919050565b6000602082019050818103600083015261528e81615252565b9050919050565b7f4552433732313a207472616e7366657220746f206e6f6e20455243373231526560008201527f63656976657220696d706c656d656e7465720000000000000000000000000000602082015250565b60006152f1603283613ce6565b91506152fc82615295565b604082019050919050565b60006020820190508181036000830152615320816152e4565b9050919050565b600061533282613d96565b915061533d83613d96565b9250817fffffffffffffffffffffffffffffffffffffffffffffffffffffffffffffffff048311821515161561537657615375614a3e565b5b828202905092915050565b7f4e487b7100000000000000000000000000000000000000000000000000000000600052601260045260246000fd5b60006153bb82613d96565b91506153c683613d96565b9250826153d6576153d5615381565b5b828204905092915050565b7f536166654d6174683a206d756c7469706c69636174696f6e206f766572666c6f60008201527f7700000000000000000000000000000000000000000000000000000000000000602082015250565b600061543d602183613ce6565b9150615448826153e1565b604082019050919050565b6000602082019050818103600083015261546c81615430565b9050919050565b7f45524337323155524953746f726167653a2055524920717565727920666f722060008201527f6e6f6e6578697374656e7420746f6b656e000000000000000000000000000000602082015250565b60006154cf603183613ce6565b91506154da82615473565b604082019050919050565b600060208201905081810360008301526154fe816154c2565b9050919050565b600081905092915050565b600061551b82613cdb565b6155258185615505565b9350615535818560208601613cf7565b80840191505092915050565b600061554d8285615510565b91506155598284615510565b91508190509392505050565b600081519050919050565b600082825260208201905092915050565b600061558c82615565565b6155968185615570565b93506155a6818560208601613cf7565b6155af81613d2a565b840191505092915050565b60006080820190506155cf6000830187613e2b565b6155dc6020830186613e2b565b6155e96040830185613ec1565b81810360608301526155fb8184615581565b905095945050505050565b60008151905061561581613c4c565b92915050565b60006020828403121561563157615630613c16565b5b600061563f84828501615606565b91505092915050565b7f4552433732314d657461646174613a2055524920717565727920666f72206e6f60008201527f6e6578697374656e7420746f6b656e0000000000000000000000000000000000602082015250565b60006156a4602f83613ce6565b91506156af82615648565b604082019050919050565b600060208201905081810360008301526156d381615697565b9050919050565b7f4552433732313a206d696e7420746f20746865207a65726f2061646472657373600082015250565b6000615710602083613ce6565b915061571b826156da565b602082019050919050565b6000602082019050818103600083015261573f81615703565b9050919050565b7f4552433732313a20746f6b656e20616c7265616479206d696e74656400000000600082015250565b600061577c601c83613ce6565b915061578782615746565b602082019050919050565b600060208201905081810360008301526157ab8161576f565b9050919050565b60006157bd82613d96565b91506157c883613d96565b9250826157d8576157d7615381565b5b828206905092915050565b7f4e487b7100000000000000000000000000000000000000000000000000000000600052603260045260246000fdfea26469706673582212203742ec1071d6808b6696f5619ecf0b982104be9a09acf1d54a2673c5099ba7da64736f6c63430008090033",
  "immutableReferences": {},
  "source": "pragma solidity ^0.8.0;\n//SPDX-License-Identifier: MIT Licensed\nimport \"@openzeppelin/contracts/access/Ownable.sol\";\nimport \"@openzeppelin/contracts/token/ERC721/extensions/ERC721URIStorage.sol\";\nimport \"@openzeppelin/contracts/token/ERC721/ERC721.sol\";\ncontract ARISwapToken is ERC721URIStorage, Ownable {\n    constructor() ERC721(\"ARISwap\", \"ARI\") {\n        \n    }\n    // using Counters for Counters.Counter;   \n    using SafeMath for uint;\n    uint256 public _tokenIds;\n    uint256 default_Time=30 minutes;\n    uint256 default_Fee=25;\n  struct BidingsData{\n    uint256 paid;\n    bool bidded;\n  }\n  struct Bidding{\n    //   BidingsData[] bids;\n      uint256 biddingId;\n      bool OpenForBidding;\n      uint256 start_time;\n      uint256 end_time;\n      uint256 bidPrice;\n      address winner;\n  }\n  struct FixedPrice{\n      uint256 price;\n      address owner;\n      uint256 paid;\n      address newowner;\n      bool forsale;\n  }\n    uint256 public newCreateNFTPrice=1e15;\n    mapping(uint256 => FixedPrice) public Fixedprices; // tokenId => tokenId fixed Price\n    mapping(uint256 => Bidding) public biddingInfo; // tokenId => Is tokenId already bidded\n    mapping(address=>uint256)public getbiidingByAddress;\n    mapping(address=>mapping(uint256=>BidingsData))public bidForBidder;\n    // mapping(uint256 => address) public bidders; // tokenId => bidder address\n    \n    modifier onlyNftOwner(uint256 tokenId) {\n        require(ownerOf(tokenId) == msg.sender,\"acceptOffer:only owner\");\n        _;\n    }\n    \n    event NewOffer(uint256 indexed tokenId,uint256 indexed price);\n    event OfferAccepted(uint256 indexed tokenId,uint256 indexed price,address from,address to);\n    event OfferSale(address, uint256 tokenId);\n    event OfferBuyFixedPrice(address owner, address buyer, uint256 TokenId);\n    function safeMint(address to, uint256 tokenId) public onlyOwner {\n        _safeMint(to, tokenId);\n    }\n    function _baseURI() internal pure override returns (string memory) {\n        return \"https://ipfs.io/\";\n    }\n    function _burn(uint256 tokenId) internal override {\n        super._burn(tokenId);\n    }\n    function tokenURI(uint256 tokenId)\n        public\n        view\n        override\n        returns (string memory)\n    {\n        return super.tokenURI(tokenId);\n    }\n    \n    function createNewNFT(address to, string memory tokenUri)  payable external returns (uint256 newID) {\n        require(msg.value>=newCreateNFTPrice, \"Insufficient amount\");\n         _tokenIds++;\n        newID=_tokenIds;\n        _safeMint(to, newID);\n        _setTokenURI(newID, tokenUri);\n        return newID;\n    }\n    \n    receive () external payable {} \n    function withdraw() external onlyOwner {\n        payable(owner()).transfer(address(this).balance); \n    }\n    function openNFTForBidding(uint256 tokenId) public onlyNftOwner(tokenId) returns(bool){\n      biddingInfo[tokenId].OpenForBidding=true;\n      biddingInfo[tokenId].start_time=block.timestamp;\n      biddingInfo[tokenId].end_time=block.timestamp.add(default_Time);\n    \n      return true;\n    }\n    // 1 day = 86400 convert it into miliseconds\nfunction openNFTForBiddingForSpecific(uint256 tokenId, uint256 timedurantion) public onlyNftOwner(tokenId) returns(bool){\n      biddingInfo[tokenId].OpenForBidding=true;\n      biddingInfo[tokenId].start_time=block.timestamp;\n       biddingInfo[tokenId].end_time=block.timestamp.add(timedurantion);\n      return true;\n    }\n    \n    function placeBid(uint256 tokenId) external payable {\n        require(biddingInfo[tokenId].OpenForBidding,\"Bidding is not open yet\");\n        require(block.timestamp<=biddingInfo[tokenId].end_time,\"Bidding time is ended\");\n        require(msg.value > 0,\"Price must be non-zero\");\n        require(_exists(tokenId),\"Non-existent tokenId\");\n        require(biddingInfo[tokenId].bidPrice<msg.value,\"You are paying less price from previous bid\");\n        // biddingInfo[tokenId]= biddingInfo[tokenId].biddingId;\n        biddingInfo[tokenId].biddingId=biddingInfo[tokenId].biddingId.add(1);\n        biddingInfo[tokenId].bidPrice=msg.value;\n        biddingInfo[tokenId].winner = msg.sender;\n        getbiidingByAddress[msg.sender]=biddingInfo[tokenId].biddingId;\n        bidForBidder[msg.sender][biddingInfo[tokenId].biddingId].paid=msg.value;\n        bidForBidder[msg.sender][biddingInfo[tokenId].biddingId].bidded=true;\n        emit NewOffer(tokenId,msg.value);\n    }    \n    function acceptOffer(uint256 tokenId) external onlyNftOwner(tokenId){\n        require(ownerOf(tokenId) == msg.sender,\"acceptOffer:only owner\");\n        require(_exists(tokenId),\"Non-existent tokenId\");\n        require(biddingInfo[tokenId].winner != address(0),\"There is no winner address\");\n        // super.approve(biddingInfo[tokenId].winner,tokenId);\n        super._safeTransfer(msg.sender,biddingInfo[tokenId].winner,tokenId,\"0x\");\n        address payable buyer = payable(msg.sender);\n        uint256 amountFee=biddingInfo[tokenId].bidPrice.mul(default_Fee.div(1000));\n        buyer.transfer(biddingInfo[tokenId].bidPrice.sub(amountFee));\n        payable(owner()).transfer(amountFee);\n        delete biddingInfo[tokenId];\n        emit OfferAccepted(tokenId,biddingInfo[tokenId].bidPrice,\n        msg.sender,biddingInfo[tokenId].winner);\n        // emit OfferAccepted(tokenId,biddingInfo[biddingInfo[tokenId].biddingId].bidPrice, msg.sender,\n        // biddingInfo[biddingInfo[tokenId].biddingId].winner);\n    }\n    function ClaimFundsAfterBidding(uint256 tokenId)public returns (bool){\n    //  uint256 a= bidForBidder[msg.sender];\n     require(bidForBidder[msg.sender][biddingInfo[tokenId].biddingId].bidded,\"didn't bid \");\n     payable(msg.sender).transfer(bidForBidder[msg.sender][biddingInfo[tokenId].biddingId].paid);\n     delete bidForBidder[msg.sender][biddingInfo[tokenId].biddingId];\n     return true;\n    }\n\n    function PutOnSale(uint256 tokenId)public onlyNftOwner(tokenId) returns(bool){\n      \n       Fixedprices[tokenId].owner=msg.sender;\n        Fixedprices[tokenId].forsale=true;\n        emit OfferSale(msg.sender,tokenId);\n        return true;\n    }\n    function BuyFixedPriceNFTs(uint256 tokenId)payable public returns(bool){\n        require(msg.value>=Fixedprices[tokenId].price, \"send lower amount in fixed price\");\n        require(Fixedprices[tokenId].forsale,\"This NFT is not for sale\");\n         Fixedprices[tokenId].paid=msg.value;\n         Fixedprices[tokenId].newowner=msg.sender;\n         return true;\n \n    }\n\n    function acceptOfferForFixedPrice(uint256 tokenId)public onlyNftOwner(tokenId) returns(bool){\n        require(Fixedprices[tokenId].newowner!=(address(0)),\"there is no buyer for this sale\");\n\n        super._safeTransfer(msg.sender,Fixedprices[tokenId].newowner,tokenId,\"0x\");\n                \n        uint256 amountFee=biddingInfo[tokenId].bidPrice.mul(default_Fee.div(1000));\n        payable(Fixedprices[tokenId].owner).transfer(Fixedprices[tokenId].paid.sub(amountFee));\n        payable(owner()).transfer(amountFee);\n        delete Fixedprices[tokenId];\n        emit OfferBuyFixedPrice(Fixedprices[tokenId].owner,msg.sender,tokenId);\n        return true;\n\n    }\n  function getBiddingData(uint256 tokenId)public view returns(\n   uint256,bool,uint256,uint256,uint256,address\n  ){\nreturn(biddingInfo[tokenId].biddingId,\nbiddingInfo[tokenId].OpenForBidding,\nbiddingInfo[tokenId].start_time,\nbiddingInfo[tokenId].end_time,\nbiddingInfo[tokenId].bidPrice,\nbiddingInfo[tokenId].winner);\n  }\n\n\n    function ChangeNewCreateNFTPrice(uint256 value)public onlyOwner returns(bool){\n      newCreateNFTPrice=value;\n      return true;\n    }\n\n    function setDefaultFee (uint256 value)public onlyOwner returns(bool){\n      default_Fee=value;\n      return true;\n    }\n\n    function setDefaultTime (uint256 value)public onlyOwner returns(bool){\n      default_Time=value;\n      return true;\n    }\n}\n\nlibrary SafeMath {\n    function add(uint256 a, uint256 b) internal pure returns (uint256) {\n        uint256 c = a + b;\n        require(c >= a, \"SafeMath: addition overflow\");\n        return c;\n    }\n    function sub(uint256 a, uint256 b) internal pure returns (uint256) {\n        return sub(a, b, \"SafeMath: subtraction overflow\");\n        \n    }\n    function sub(uint256 a, uint256 b, string memory errorMessage) internal pure returns (uint256) {\n        require(b <= a, errorMessage);\n        uint256 c = a - b;\n        return c;\n    }\n    function mul(uint256 a, uint256 b) internal pure returns (uint256) {\n        // Gas optimization: this is cheaper than requiring 'a' not being zero, but the\n        // benefit is lost if 'b' is also tested.\n        // See: https://github.com/OpenZeppelin/openzeppelin-contracts/pull/522\n        if (a == 0) {\n            return 0;\n        }\n        uint256 c = a * b;\n        require(c / a == b, \"SafeMath: multiplication overflow\");\n        return c;\n    }\n    function div(uint256 a, uint256 b) internal pure returns (uint256) {\n        return div(a, b, \"SafeMath: division by zero\");\n    }\n    function div(uint256 a, uint256 b, string memory errorMessage) internal pure returns (uint256) {\n        // Solidity only automatically asserts when dividing by 0\n        require(b > 0, errorMessage);\n        uint256 c = a / b;\n        // assert(a == b * c + a % b); // There is no case in which this doesn't hold\n        return c;\n    }\n    function mod(uint256 a, uint256 b) internal pure returns (uint256) {\n        return mod(a, b, \"SafeMath: modulo by zero\");\n    }\n    function mod(uint256 a, uint256 b, string memory errorMessage) internal pure returns (uint256) {\n        require(b != 0, errorMessage);\n        return a % b;\n    }\n}",
  "sourcePath": "/Users/tania/Documents/MintClub/contracts/market.sol",
  "compiler": {
    "name": "solc",
    "version": "0.8.9+commit.e5eed63a.Emscripten.clang"
  },
  "schemaVersion": "3.4.3",
  "updatedAt": "2022-02-03T14:43:28.081Z",
  "devdoc": {
    "kind": "dev",
    "methods": {
      "approve(address,uint256)": {
        "details": "See {IERC721-approve}."
      },
      "balanceOf(address)": {
        "details": "See {IERC721-balanceOf}."
      },
      "getApproved(uint256)": {
        "details": "See {IERC721-getApproved}."
      },
      "isApprovedForAll(address,address)": {
        "details": "See {IERC721-isApprovedForAll}."
      },
      "name()": {
        "details": "See {IERC721Metadata-name}."
      },
      "owner()": {
        "details": "Returns the address of the current owner."
      },
      "ownerOf(uint256)": {
        "details": "See {IERC721-ownerOf}."
      },
      "renounceOwnership()": {
        "details": "Leaves the contract without owner. It will not be possible to call `onlyOwner` functions anymore. Can only be called by the current owner. NOTE: Renouncing ownership will leave the contract without an owner, thereby removing any functionality that is only available to the owner."
      },
      "safeTransferFrom(address,address,uint256)": {
        "details": "See {IERC721-safeTransferFrom}."
      },
      "safeTransferFrom(address,address,uint256,bytes)": {
        "details": "See {IERC721-safeTransferFrom}."
      },
      "setApprovalForAll(address,bool)": {
        "details": "See {IERC721-setApprovalForAll}."
      },
      "supportsInterface(bytes4)": {
        "details": "See {IERC165-supportsInterface}."
      },
      "symbol()": {
        "details": "See {IERC721Metadata-symbol}."
      },
      "tokenURI(uint256)": {
        "details": "See {IERC721Metadata-tokenURI}."
      },
      "transferFrom(address,address,uint256)": {
        "details": "See {IERC721-transferFrom}."
      },
      "transferOwnership(address)": {
        "details": "Transfers ownership of the contract to a new account (`newOwner`). Can only be called by the current owner."
      }
    },
    "version": 1
  },
  "userdoc": {
    "kind": "user",
    "methods": {},
    "version": 1
  }
}