{
  "contractName": "Mintsclub",
  "abi": [
    {
      "inputs": [
        {
          "internalType": "string",
          "name": "_name",
          "type": "string"
        }
      ],
      "stateMutability": "nonpayable",
      "type": "constructor"
    },
    {
      "anonymous": false,
      "inputs": [
        {
          "indexed": true,
          "internalType": "address",
          "name": "account",
          "type": "address"
        },
        {
          "indexed": true,
          "internalType": "address",
          "name": "operator",
          "type": "address"
        },
        {
          "indexed": false,
          "internalType": "bool",
          "name": "approved",
          "type": "bool"
        }
      ],
      "name": "ApprovalForAll",
      "type": "event"
    },
    {
      "anonymous": false,
      "inputs": [
        {
          "indexed": true,
          "internalType": "address",
          "name": "previousOwner",
          "type": "address"
        },
        {
          "indexed": true,
          "internalType": "address",
          "name": "newOwner",
          "type": "address"
        }
      ],
      "name": "OwnershipTransferred",
      "type": "event"
    },
    {
      "anonymous": false,
      "inputs": [
        {
          "indexed": true,
          "internalType": "address",
          "name": "operator",
          "type": "address"
        },
        {
          "indexed": true,
          "internalType": "address",
          "name": "from",
          "type": "address"
        },
        {
          "indexed": true,
          "internalType": "address",
          "name": "to",
          "type": "address"
        },
        {
          "indexed": false,
          "internalType": "uint256[]",
          "name": "ids",
          "type": "uint256[]"
        },
        {
          "indexed": false,
          "internalType": "uint256[]",
          "name": "values",
          "type": "uint256[]"
        }
      ],
      "name": "TransferBatch",
      "type": "event"
    },
    {
      "anonymous": false,
      "inputs": [
        {
          "indexed": true,
          "internalType": "address",
          "name": "operator",
          "type": "address"
        },
        {
          "indexed": true,
          "internalType": "address",
          "name": "from",
          "type": "address"
        },
        {
          "indexed": true,
          "internalType": "address",
          "name": "to",
          "type": "address"
        },
        {
          "indexed": false,
          "internalType": "uint256",
          "name": "id",
          "type": "uint256"
        },
        {
          "indexed": false,
          "internalType": "uint256",
          "name": "value",
          "type": "uint256"
        }
      ],
      "name": "TransferSingle",
      "type": "event"
    },
    {
      "anonymous": false,
      "inputs": [
        {
          "indexed": false,
          "internalType": "string",
          "name": "value",
          "type": "string"
        },
        {
          "indexed": true,
          "internalType": "uint256",
          "name": "id",
          "type": "uint256"
        }
      ],
      "name": "URI",
      "type": "event"
    },
    {
      "inputs": [
        {
          "internalType": "address",
          "name": "account",
          "type": "address"
        },
        {
          "internalType": "uint256",
          "name": "id",
          "type": "uint256"
        }
      ],
      "name": "balanceOf",
      "outputs": [
        {
          "internalType": "uint256",
          "name": "",
          "type": "uint256"
        }
      ],
      "stateMutability": "view",
      "type": "function"
    },
    {
      "inputs": [
        {
          "internalType": "address[]",
          "name": "accounts",
          "type": "address[]"
        },
        {
          "internalType": "uint256[]",
          "name": "ids",
          "type": "uint256[]"
        }
      ],
      "name": "balanceOfBatch",
      "outputs": [
        {
          "internalType": "uint256[]",
          "name": "",
          "type": "uint256[]"
        }
      ],
      "stateMutability": "view",
      "type": "function"
    },
    {
      "inputs": [
        {
          "internalType": "address",
          "name": "account",
          "type": "address"
        },
        {
          "internalType": "uint256",
          "name": "id",
          "type": "uint256"
        },
        {
          "internalType": "uint256",
          "name": "value",
          "type": "uint256"
        }
      ],
      "name": "burn",
      "outputs": [],
      "stateMutability": "nonpayable",
      "type": "function"
    },
    {
      "inputs": [
        {
          "internalType": "address",
          "name": "account",
          "type": "address"
        },
        {
          "internalType": "uint256[]",
          "name": "ids",
          "type": "uint256[]"
        },
        {
          "internalType": "uint256[]",
          "name": "values",
          "type": "uint256[]"
        }
      ],
      "name": "burnBatch",
      "outputs": [],
      "stateMutability": "nonpayable",
      "type": "function"
    },
    {
      "inputs": [
        {
          "internalType": "address",
          "name": "account",
          "type": "address"
        },
        {
          "internalType": "address",
          "name": "operator",
          "type": "address"
        }
      ],
      "name": "isApprovedForAll",
      "outputs": [
        {
          "internalType": "bool",
          "name": "",
          "type": "bool"
        }
      ],
      "stateMutability": "view",
      "type": "function"
    },
    {
      "inputs": [],
      "name": "owner",
      "outputs": [
        {
          "internalType": "address",
          "name": "",
          "type": "address"
        }
      ],
      "stateMutability": "view",
      "type": "function"
    },
    {
      "inputs": [],
      "name": "renounceOwnership",
      "outputs": [],
      "stateMutability": "nonpayable",
      "type": "function"
    },
    {
      "inputs": [
        {
          "internalType": "address",
          "name": "from",
          "type": "address"
        },
        {
          "internalType": "address",
          "name": "to",
          "type": "address"
        },
        {
          "internalType": "uint256[]",
          "name": "ids",
          "type": "uint256[]"
        },
        {
          "internalType": "uint256[]",
          "name": "amounts",
          "type": "uint256[]"
        },
        {
          "internalType": "bytes",
          "name": "data",
          "type": "bytes"
        }
      ],
      "name": "safeBatchTransferFrom",
      "outputs": [],
      "stateMutability": "nonpayable",
      "type": "function"
    },
    {
      "inputs": [
        {
          "internalType": "address",
          "name": "from",
          "type": "address"
        },
        {
          "internalType": "address",
          "name": "to",
          "type": "address"
        },
        {
          "internalType": "uint256",
          "name": "id",
          "type": "uint256"
        },
        {
          "internalType": "uint256",
          "name": "amount",
          "type": "uint256"
        },
        {
          "internalType": "bytes",
          "name": "data",
          "type": "bytes"
        }
      ],
      "name": "safeTransferFrom",
      "outputs": [],
      "stateMutability": "nonpayable",
      "type": "function"
    },
    {
      "inputs": [
        {
          "internalType": "address",
          "name": "operator",
          "type": "address"
        },
        {
          "internalType": "bool",
          "name": "approved",
          "type": "bool"
        }
      ],
      "name": "setApprovalForAll",
      "outputs": [],
      "stateMutability": "nonpayable",
      "type": "function"
    },
    {
      "inputs": [
        {
          "internalType": "bytes4",
          "name": "interfaceId",
          "type": "bytes4"
        }
      ],
      "name": "supportsInterface",
      "outputs": [
        {
          "internalType": "bool",
          "name": "",
          "type": "bool"
        }
      ],
      "stateMutability": "view",
      "type": "function"
    },
    {
      "inputs": [
        {
          "internalType": "address",
          "name": "newOwner",
          "type": "address"
        }
      ],
      "name": "transferOwnership",
      "outputs": [],
      "stateMutability": "nonpayable",
      "type": "function"
    },
    {
      "inputs": [
        {
          "internalType": "uint256",
          "name": "",
          "type": "uint256"
        }
      ],
      "name": "uri",
      "outputs": [
        {
          "internalType": "string",
          "name": "",
          "type": "string"
        }
      ],
      "stateMutability": "view",
      "type": "function"
    },
    {
      "inputs": [
        {
          "internalType": "string",
          "name": "newuri",
          "type": "string"
        }
      ],
      "name": "setURI",
      "outputs": [],
      "stateMutability": "nonpayable",
      "type": "function"
    },
    {
      "inputs": [
        {
          "internalType": "address",
          "name": "account",
          "type": "address"
        },
        {
          "internalType": "uint256",
          "name": "id",
          "type": "uint256"
        },
        {
          "internalType": "uint256",
          "name": "amount",
          "type": "uint256"
        },
        {
          "internalType": "bytes",
          "name": "data",
          "type": "bytes"
        },
        {
          "internalType": "string",
          "name": "tokenuri",
          "type": "string"
        }
      ],
      "name": "mint",
      "outputs": [],
      "stateMutability": "nonpayable",
      "type": "function"
    },
    {
      "inputs": [
        {
          "internalType": "address",
          "name": "to",
          "type": "address"
        },
        {
          "internalType": "uint256[]",
          "name": "ids",
          "type": "uint256[]"
        },
        {
          "internalType": "uint256[]",
          "name": "amounts",
          "type": "uint256[]"
        },
        {
          "internalType": "bytes",
          "name": "data",
          "type": "bytes"
        }
      ],
      "name": "mintBatch",
      "outputs": [],
      "stateMutability": "nonpayable",
      "type": "function"
    }
  ],
  "bytecode": "0x60806040523480156200001157600080fd5b506040516200401d3803806200401d8339818101604052810190620000379190620003a8565b8062000049816200007160201b60201c565b506200006a6200005e6200008d60201b60201c565b6200009560201b60201c565b506200045e565b8060029080519060200190620000899291906200015b565b5050565b600033905090565b6000600360009054906101000a900473ffffffffffffffffffffffffffffffffffffffff16905081600360006101000a81548173ffffffffffffffffffffffffffffffffffffffff021916908373ffffffffffffffffffffffffffffffffffffffff1602179055508173ffffffffffffffffffffffffffffffffffffffff168173ffffffffffffffffffffffffffffffffffffffff167f8be0079c531659141344cd1fd0a4f28419497f9722a3daafe3b4186f6b6457e060405160405180910390a35050565b828054620001699062000428565b90600052602060002090601f0160209004810192826200018d5760008555620001d9565b82601f10620001a857805160ff1916838001178555620001d9565b82800160010185558215620001d9579182015b82811115620001d8578251825591602001919060010190620001bb565b5b509050620001e89190620001ec565b5090565b5b8082111562000207576000816000905550600101620001ed565b5090565b6000604051905090565b600080fd5b600080fd5b600080fd5b600080fd5b6000601f19601f8301169050919050565b7f4e487b7100000000000000000000000000000000000000000000000000000000600052604160045260246000fd5b620002748262000229565b810181811067ffffffffffffffff821117156200029657620002956200023a565b5b80604052505050565b6000620002ab6200020b565b9050620002b9828262000269565b919050565b600067ffffffffffffffff821115620002dc57620002db6200023a565b5b620002e78262000229565b9050602081019050919050565b60005b8381101562000314578082015181840152602081019050620002f7565b8381111562000324576000848401525b50505050565b6000620003416200033b84620002be565b6200029f565b90508281526020810184848401111562000360576200035f62000224565b5b6200036d848285620002f4565b509392505050565b600082601f8301126200038d576200038c6200021f565b5b81516200039f8482602086016200032a565b91505092915050565b600060208284031215620003c157620003c062000215565b5b600082015167ffffffffffffffff811115620003e257620003e16200021a565b5b620003f08482850162000375565b91505092915050565b7f4e487b7100000000000000000000000000000000000000000000000000000000600052602260045260246000fd5b600060028204905060018216806200044157607f821691505b60208210811415620004585762000457620003f9565b5b50919050565b613baf806200046e6000396000f3fe608060405234801561001057600080fd5b50600436106100ff5760003560e01c8063715018a611610097578063e985e9c511610066578063e985e9c514610294578063f242432a146102c4578063f2fde38b146102e0578063f5298aca146102fc576100ff565b8063715018a6146102345780638da5cb5b1461023e578063a22cb4651461025c578063c1341c4f14610278576100ff565b80631f7fdffa116100d35780631f7fdffa146101b05780632eb2c2d6146101cc5780634e1273f4146101e85780636b20c45414610218576100ff565b8062fdd58e1461010457806301ffc9a71461013457806302fe5305146101645780630e89341c14610180575b600080fd5b61011e60048036038101906101199190612371565b610318565b60405161012b91906123c0565b60405180910390f35b61014e60048036038101906101499190612433565b6103e1565b60405161015b919061247b565b60405180910390f35b61017e600480360381019061017991906125dc565b6104c3565b005b61019a60048036038101906101959190612625565b61054b565b6040516101a791906126da565b60405180910390f35b6101ca60048036038101906101c59190612865565b6105df565b005b6101e660048036038101906101e19190612920565b61066d565b005b61020260048036038101906101fd9190612ab2565b61070e565b60405161020f9190612be8565b60405180910390f35b610232600480360381019061022d9190612c0a565b610827565b005b61023c6108c4565b005b61024661094c565b6040516102539190612ca4565b60405180910390f35b61027660048036038101906102719190612ceb565b610976565b005b610292600480360381019061028d9190612d2b565b610af7565b005b6102ae60048036038101906102a99190612dde565b610b8f565b6040516102bb919061247b565b60405180910390f35b6102de60048036038101906102d99190612e1e565b610c23565b005b6102fa60048036038101906102f59190612eb5565b610cc4565b005b61031660048036038101906103119190612ee2565b610dbc565b005b60008073ffffffffffffffffffffffffffffffffffffffff168373ffffffffffffffffffffffffffffffffffffffff161415610389576040517f08c379a000000000000000000000000000000000000000000000000000000000815260040161038090612fa7565b60405180910390fd5b60008083815260200190815260200160002060008473ffffffffffffffffffffffffffffffffffffffff1673ffffffffffffffffffffffffffffffffffffffff16815260200190815260200160002054905092915050565b60007fd9b67a26000000000000000000000000000000000000000000000000000000007bffffffffffffffffffffffffffffffffffffffffffffffffffffffff1916827bffffffffffffffffffffffffffffffffffffffffffffffffffffffff191614806104ac57507f0e89341c000000000000000000000000000000000000000000000000000000007bffffffffffffffffffffffffffffffffffffffffffffffffffffffff1916827bffffffffffffffffffffffffffffffffffffffffffffffffffffffff1916145b806104bc57506104bb82610e59565b5b9050919050565b6104cb610ec3565b73ffffffffffffffffffffffffffffffffffffffff166104e961094c565b73ffffffffffffffffffffffffffffffffffffffff161461053f576040517f08c379a000000000000000000000000000000000000000000000000000000000815260040161053690613013565b60405180910390fd5b61054881610ecb565b50565b60606002805461055a90613062565b80601f016020809104026020016040519081016040528092919081815260200182805461058690613062565b80156105d35780601f106105a8576101008083540402835291602001916105d3565b820191906000526020600020905b8154815290600101906020018083116105b657829003601f168201915b50505050509050919050565b6105e7610ec3565b73ffffffffffffffffffffffffffffffffffffffff1661060561094c565b73ffffffffffffffffffffffffffffffffffffffff161461065b576040517f08c379a000000000000000000000000000000000000000000000000000000000815260040161065290613013565b60405180910390fd5b61066784848484610ee5565b50505050565b610675610ec3565b73ffffffffffffffffffffffffffffffffffffffff168573ffffffffffffffffffffffffffffffffffffffff1614806106bb57506106ba856106b5610ec3565b610b8f565b5b6106fa576040517f08c379a00000000000000000000000000000000000000000000000000000000081526004016106f190613106565b60405180910390fd5b6107078585858585611103565b5050505050565b60608151835114610754576040517f08c379a000000000000000000000000000000000000000000000000000000000815260040161074b90613198565b60405180910390fd5b6000835167ffffffffffffffff811115610771576107706124b1565b5b60405190808252806020026020018201604052801561079f5781602001602082028036833780820191505090505b50905060005b845181101561081c576107ec8582815181106107c4576107c36131b8565b5b60200260200101518583815181106107df576107de6131b8565b5b6020026020010151610318565b8282815181106107ff576107fe6131b8565b5b6020026020010181815250508061081590613216565b90506107a5565b508091505092915050565b61082f610ec3565b73ffffffffffffffffffffffffffffffffffffffff168373ffffffffffffffffffffffffffffffffffffffff16148061087557506108748361086f610ec3565b610b8f565b5b6108b4576040517f08c379a00000000000000000000000000000000000000000000000000000000081526004016108ab906132d1565b60405180910390fd5b6108bf838383611417565b505050565b6108cc610ec3565b73ffffffffffffffffffffffffffffffffffffffff166108ea61094c565b73ffffffffffffffffffffffffffffffffffffffff1614610940576040517f08c379a000000000000000000000000000000000000000000000000000000000815260040161093790613013565b60405180910390fd5b61094a60006116c8565b565b6000600360009054906101000a900473ffffffffffffffffffffffffffffffffffffffff16905090565b8173ffffffffffffffffffffffffffffffffffffffff16610995610ec3565b73ffffffffffffffffffffffffffffffffffffffff1614156109ec576040517f08c379a00000000000000000000000000000000000000000000000000000000081526004016109e390613363565b60405180910390fd5b80600160006109f9610ec3565b73ffffffffffffffffffffffffffffffffffffffff1673ffffffffffffffffffffffffffffffffffffffff16815260200190815260200160002060008473ffffffffffffffffffffffffffffffffffffffff1673ffffffffffffffffffffffffffffffffffffffff16815260200190815260200160002060006101000a81548160ff0219169083151502179055508173ffffffffffffffffffffffffffffffffffffffff16610aa6610ec3565b73ffffffffffffffffffffffffffffffffffffffff167f17307eab39ab6107e8899845ad3d59bd9653f200f220920489ca2b5937696c3183604051610aeb919061247b565b60405180910390a35050565b610aff610ec3565b73ffffffffffffffffffffffffffffffffffffffff16610b1d61094c565b73ffffffffffffffffffffffffffffffffffffffff1614610b73576040517f08c379a0000000000000000000000000000000000000000000000000000000008152600401610b6a90613013565b60405180910390fd5b610b7f8585858561178e565b610b88816104c3565b5050505050565b6000600160008473ffffffffffffffffffffffffffffffffffffffff1673ffffffffffffffffffffffffffffffffffffffff16815260200190815260200160002060008373ffffffffffffffffffffffffffffffffffffffff1673ffffffffffffffffffffffffffffffffffffffff16815260200190815260200160002060009054906101000a900460ff16905092915050565b610c2b610ec3565b73ffffffffffffffffffffffffffffffffffffffff168573ffffffffffffffffffffffffffffffffffffffff161480610c715750610c7085610c6b610ec3565b610b8f565b5b610cb0576040517f08c379a0000000000000000000000000000000000000000000000000000000008152600401610ca7906132d1565b60405180910390fd5b610cbd8585858585611924565b5050505050565b610ccc610ec3565b73ffffffffffffffffffffffffffffffffffffffff16610cea61094c565b73ffffffffffffffffffffffffffffffffffffffff1614610d40576040517f08c379a0000000000000000000000000000000000000000000000000000000008152600401610d3790613013565b60405180910390fd5b600073ffffffffffffffffffffffffffffffffffffffff168173ffffffffffffffffffffffffffffffffffffffff161415610db0576040517f08c379a0000000000000000000000000000000000000000000000000000000008152600401610da7906133f5565b60405180910390fd5b610db9816116c8565b50565b610dc4610ec3565b73ffffffffffffffffffffffffffffffffffffffff168373ffffffffffffffffffffffffffffffffffffffff161480610e0a5750610e0983610e04610ec3565b610b8f565b5b610e49576040517f08c379a0000000000000000000000000000000000000000000000000000000008152600401610e40906132d1565b60405180910390fd5b610e54838383611ba6565b505050565b60007f01ffc9a7000000000000000000000000000000000000000000000000000000007bffffffffffffffffffffffffffffffffffffffffffffffffffffffff1916827bffffffffffffffffffffffffffffffffffffffffffffffffffffffff1916149050919050565b600033905090565b8060029080519060200190610ee1929190612226565b5050565b600073ffffffffffffffffffffffffffffffffffffffff168473ffffffffffffffffffffffffffffffffffffffff161415610f55576040517f08c379a0000000000000000000000000000000000000000000000000000000008152600401610f4c90613487565b60405180910390fd5b8151835114610f99576040517f08c379a0000000000000000000000000000000000000000000000000000000008152600401610f9090613519565b60405180910390fd5b6000610fa3610ec3565b9050610fb481600087878787611dc3565b60005b845181101561106d57838181518110610fd357610fd26131b8565b5b6020026020010151600080878481518110610ff157610ff06131b8565b5b6020026020010151815260200190815260200160002060008873ffffffffffffffffffffffffffffffffffffffff1673ffffffffffffffffffffffffffffffffffffffff16815260200190815260200160002060008282546110539190613539565b92505081905550808061106590613216565b915050610fb7565b508473ffffffffffffffffffffffffffffffffffffffff16600073ffffffffffffffffffffffffffffffffffffffff168273ffffffffffffffffffffffffffffffffffffffff167f4a39dc06d4c0dbc64b70af90fd698a233a518aa5d07e595d983b8c0526c8f7fb87876040516110e592919061358f565b60405180910390a46110fc81600087878787611dcb565b5050505050565b8151835114611147576040517f08c379a000000000000000000000000000000000000000000000000000000000815260040161113e90613519565b60405180910390fd5b600073ffffffffffffffffffffffffffffffffffffffff168473ffffffffffffffffffffffffffffffffffffffff1614156111b7576040517f08c379a00000000000000000000000000000000000000000000000000000000081526004016111ae90613638565b60405180910390fd5b60006111c1610ec3565b90506111d1818787878787611dc3565b60005b84518110156113825760008582815181106111f2576111f16131b8565b5b602002602001015190506000858381518110611211576112106131b8565b5b60200260200101519050600080600084815260200190815260200160002060008b73ffffffffffffffffffffffffffffffffffffffff1673ffffffffffffffffffffffffffffffffffffffff168152602001908152602001600020549050818110156112b2576040517f08c379a00000000000000000000000000000000000000000000000000000000081526004016112a9906136ca565b60405180910390fd5b81810360008085815260200190815260200160002060008c73ffffffffffffffffffffffffffffffffffffffff1673ffffffffffffffffffffffffffffffffffffffff168152602001908152602001600020819055508160008085815260200190815260200160002060008b73ffffffffffffffffffffffffffffffffffffffff1673ffffffffffffffffffffffffffffffffffffffff16815260200190815260200160002060008282546113679190613539565b925050819055505050508061137b90613216565b90506111d4565b508473ffffffffffffffffffffffffffffffffffffffff168673ffffffffffffffffffffffffffffffffffffffff168273ffffffffffffffffffffffffffffffffffffffff167f4a39dc06d4c0dbc64b70af90fd698a233a518aa5d07e595d983b8c0526c8f7fb87876040516113f992919061358f565b60405180910390a461140f818787878787611dcb565b505050505050565b600073ffffffffffffffffffffffffffffffffffffffff168373ffffffffffffffffffffffffffffffffffffffff161415611487576040517f08c379a000000000000000000000000000000000000000000000000000000000815260040161147e9061375c565b60405180910390fd5b80518251146114cb576040517f08c379a00000000000000000000000000000000000000000000000000000000081526004016114c290613519565b60405180910390fd5b60006114d5610ec3565b90506114f581856000868660405180602001604052806000815250611dc3565b60005b8351811015611642576000848281518110611516576115156131b8565b5b602002602001015190506000848381518110611535576115346131b8565b5b60200260200101519050600080600084815260200190815260200160002060008973ffffffffffffffffffffffffffffffffffffffff1673ffffffffffffffffffffffffffffffffffffffff168152602001908152602001600020549050818110156115d6576040517f08c379a00000000000000000000000000000000000000000000000000000000081526004016115cd906137ee565b60405180910390fd5b81810360008085815260200190815260200160002060008a73ffffffffffffffffffffffffffffffffffffffff1673ffffffffffffffffffffffffffffffffffffffff16815260200190815260200160002081905550505050808061163a90613216565b9150506114f8565b50600073ffffffffffffffffffffffffffffffffffffffff168473ffffffffffffffffffffffffffffffffffffffff168273ffffffffffffffffffffffffffffffffffffffff167f4a39dc06d4c0dbc64b70af90fd698a233a518aa5d07e595d983b8c0526c8f7fb86866040516116ba92919061358f565b60405180910390a450505050565b6000600360009054906101000a900473ffffffffffffffffffffffffffffffffffffffff16905081600360006101000a81548173ffffffffffffffffffffffffffffffffffffffff021916908373ffffffffffffffffffffffffffffffffffffffff1602179055508173ffffffffffffffffffffffffffffffffffffffff168173ffffffffffffffffffffffffffffffffffffffff167f8be0079c531659141344cd1fd0a4f28419497f9722a3daafe3b4186f6b6457e060405160405180910390a35050565b600073ffffffffffffffffffffffffffffffffffffffff168473ffffffffffffffffffffffffffffffffffffffff1614156117fe576040517f08c379a00000000000000000000000000000000000000000000000000000000081526004016117f590613487565b60405180910390fd5b6000611808610ec3565b90506118298160008761181a88611fb2565b61182388611fb2565b87611dc3565b8260008086815260200190815260200160002060008773ffffffffffffffffffffffffffffffffffffffff1673ffffffffffffffffffffffffffffffffffffffff16815260200190815260200160002060008282546118889190613539565b925050819055508473ffffffffffffffffffffffffffffffffffffffff16600073ffffffffffffffffffffffffffffffffffffffff168273ffffffffffffffffffffffffffffffffffffffff167fc3d58168c5ae7397731d063d5bbf3d657854427343f4c083240f7aacaa2d0f62878760405161190692919061380e565b60405180910390a461191d8160008787878761202c565b5050505050565b600073ffffffffffffffffffffffffffffffffffffffff168473ffffffffffffffffffffffffffffffffffffffff161415611994576040517f08c379a000000000000000000000000000000000000000000000000000000000815260040161198b90613638565b60405180910390fd5b600061199e610ec3565b90506119be8187876119af88611fb2565b6119b888611fb2565b87611dc3565b600080600086815260200190815260200160002060008873ffffffffffffffffffffffffffffffffffffffff1673ffffffffffffffffffffffffffffffffffffffff16815260200190815260200160002054905083811015611a55576040517f08c379a0000000000000000000000000000000000000000000000000000000008152600401611a4c906136ca565b60405180910390fd5b83810360008087815260200190815260200160002060008973ffffffffffffffffffffffffffffffffffffffff1673ffffffffffffffffffffffffffffffffffffffff168152602001908152602001600020819055508360008087815260200190815260200160002060008873ffffffffffffffffffffffffffffffffffffffff1673ffffffffffffffffffffffffffffffffffffffff1681526020019081526020016000206000828254611b0a9190613539565b925050819055508573ffffffffffffffffffffffffffffffffffffffff168773ffffffffffffffffffffffffffffffffffffffff168373ffffffffffffffffffffffffffffffffffffffff167fc3d58168c5ae7397731d063d5bbf3d657854427343f4c083240f7aacaa2d0f628888604051611b8792919061380e565b60405180910390a4611b9d82888888888861202c565b50505050505050565b600073ffffffffffffffffffffffffffffffffffffffff168373ffffffffffffffffffffffffffffffffffffffff161415611c16576040517f08c379a0000000000000000000000000000000000000000000000000000000008152600401611c0d9061375c565b60405180910390fd5b6000611c20610ec3565b9050611c5081856000611c3287611fb2565b611c3b87611fb2565b60405180602001604052806000815250611dc3565b600080600085815260200190815260200160002060008673ffffffffffffffffffffffffffffffffffffffff1673ffffffffffffffffffffffffffffffffffffffff16815260200190815260200160002054905082811015611ce7576040517f08c379a0000000000000000000000000000000000000000000000000000000008152600401611cde906137ee565b60405180910390fd5b82810360008086815260200190815260200160002060008773ffffffffffffffffffffffffffffffffffffffff1673ffffffffffffffffffffffffffffffffffffffff16815260200190815260200160002081905550600073ffffffffffffffffffffffffffffffffffffffff168573ffffffffffffffffffffffffffffffffffffffff168373ffffffffffffffffffffffffffffffffffffffff167fc3d58168c5ae7397731d063d5bbf3d657854427343f4c083240f7aacaa2d0f628787604051611db492919061380e565b60405180910390a45050505050565b505050505050565b611dea8473ffffffffffffffffffffffffffffffffffffffff16612213565b15611faa578373ffffffffffffffffffffffffffffffffffffffff1663bc197c8187878686866040518663ffffffff1660e01b8152600401611e3095949392919061388c565b602060405180830381600087803b158015611e4a57600080fd5b505af1925050508015611e7b57506040513d601f19601f82011682018060405250810190611e789190613909565b60015b611f2157611e87613943565b806308c379a01415611ee45750611e9c613965565b80611ea75750611ee6565b806040517f08c379a0000000000000000000000000000000000000000000000000000000008152600401611edb91906126da565b60405180910390fd5b505b6040517f08c379a0000000000000000000000000000000000000000000000000000000008152600401611f1890613a6d565b60405180910390fd5b63bc197c8160e01b7bffffffffffffffffffffffffffffffffffffffffffffffffffffffff1916817bffffffffffffffffffffffffffffffffffffffffffffffffffffffff191614611fa8576040517f08c379a0000000000000000000000000000000000000000000000000000000008152600401611f9f90613aff565b60405180910390fd5b505b505050505050565b60606000600167ffffffffffffffff811115611fd157611fd06124b1565b5b604051908082528060200260200182016040528015611fff5781602001602082028036833780820191505090505b5090508281600081518110612017576120166131b8565b5b60200260200101818152505080915050919050565b61204b8473ffffffffffffffffffffffffffffffffffffffff16612213565b1561220b578373ffffffffffffffffffffffffffffffffffffffff1663f23a6e6187878686866040518663ffffffff1660e01b8152600401612091959493929190613b1f565b602060405180830381600087803b1580156120ab57600080fd5b505af19250505080156120dc57506040513d601f19601f820116820180604052508101906120d99190613909565b60015b612182576120e8613943565b806308c379a0141561214557506120fd613965565b806121085750612147565b806040517f08c379a000000000000000000000000000000000000000000000000000000000815260040161213c91906126da565b60405180910390fd5b505b6040517f08c379a000000000000000000000000000000000000000000000000000000000815260040161217990613a6d565b60405180910390fd5b63f23a6e6160e01b7bffffffffffffffffffffffffffffffffffffffffffffffffffffffff1916817bffffffffffffffffffffffffffffffffffffffffffffffffffffffff191614612209576040517f08c379a000000000000000000000000000000000000000000000000000000000815260040161220090613aff565b60405180910390fd5b505b505050505050565b600080823b905060008111915050919050565b82805461223290613062565b90600052602060002090601f016020900481019282612254576000855561229b565b82601f1061226d57805160ff191683800117855561229b565b8280016001018555821561229b579182015b8281111561229a57825182559160200191906001019061227f565b5b5090506122a891906122ac565b5090565b5b808211156122c55760008160009055506001016122ad565b5090565b6000604051905090565b600080fd5b600080fd5b600073ffffffffffffffffffffffffffffffffffffffff82169050919050565b6000612308826122dd565b9050919050565b612318816122fd565b811461232357600080fd5b50565b6000813590506123358161230f565b92915050565b6000819050919050565b61234e8161233b565b811461235957600080fd5b50565b60008135905061236b81612345565b92915050565b60008060408385031215612388576123876122d3565b5b600061239685828601612326565b92505060206123a78582860161235c565b9150509250929050565b6123ba8161233b565b82525050565b60006020820190506123d560008301846123b1565b92915050565b60007fffffffff0000000000000000000000000000000000000000000000000000000082169050919050565b612410816123db565b811461241b57600080fd5b50565b60008135905061242d81612407565b92915050565b600060208284031215612449576124486122d3565b5b60006124578482850161241e565b91505092915050565b60008115159050919050565b61247581612460565b82525050565b6000602082019050612490600083018461246c565b92915050565b600080fd5b600080fd5b6000601f19601f8301169050919050565b7f4e487b7100000000000000000000000000000000000000000000000000000000600052604160045260246000fd5b6124e9826124a0565b810181811067ffffffffffffffff82111715612508576125076124b1565b5b80604052505050565b600061251b6122c9565b905061252782826124e0565b919050565b600067ffffffffffffffff821115612547576125466124b1565b5b612550826124a0565b9050602081019050919050565b82818337600083830152505050565b600061257f61257a8461252c565b612511565b90508281526020810184848401111561259b5761259a61249b565b5b6125a684828561255d565b509392505050565b600082601f8301126125c3576125c2612496565b5b81356125d384826020860161256c565b91505092915050565b6000602082840312156125f2576125f16122d3565b5b600082013567ffffffffffffffff8111156126105761260f6122d8565b5b61261c848285016125ae565b91505092915050565b60006020828403121561263b5761263a6122d3565b5b60006126498482850161235c565b91505092915050565b600081519050919050565b600082825260208201905092915050565b60005b8381101561268c578082015181840152602081019050612671565b8381111561269b576000848401525b50505050565b60006126ac82612652565b6126b6818561265d565b93506126c681856020860161266e565b6126cf816124a0565b840191505092915050565b600060208201905081810360008301526126f481846126a1565b905092915050565b600067ffffffffffffffff821115612717576127166124b1565b5b602082029050602081019050919050565b600080fd5b600061274061273b846126fc565b612511565b9050808382526020820190506020840283018581111561276357612762612728565b5b835b8181101561278c5780612778888261235c565b845260208401935050602081019050612765565b5050509392505050565b600082601f8301126127ab576127aa612496565b5b81356127bb84826020860161272d565b91505092915050565b600067ffffffffffffffff8211156127df576127de6124b1565b5b6127e8826124a0565b9050602081019050919050565b6000612808612803846127c4565b612511565b9050828152602081018484840111156128245761282361249b565b5b61282f84828561255d565b509392505050565b600082601f83011261284c5761284b612496565b5b813561285c8482602086016127f5565b91505092915050565b6000806000806080858703121561287f5761287e6122d3565b5b600061288d87828801612326565b945050602085013567ffffffffffffffff8111156128ae576128ad6122d8565b5b6128ba87828801612796565b935050604085013567ffffffffffffffff8111156128db576128da6122d8565b5b6128e787828801612796565b925050606085013567ffffffffffffffff811115612908576129076122d8565b5b61291487828801612837565b91505092959194509250565b600080600080600060a0868803121561293c5761293b6122d3565b5b600061294a88828901612326565b955050602061295b88828901612326565b945050604086013567ffffffffffffffff81111561297c5761297b6122d8565b5b61298888828901612796565b935050606086013567ffffffffffffffff8111156129a9576129a86122d8565b5b6129b588828901612796565b925050608086013567ffffffffffffffff8111156129d6576129d56122d8565b5b6129e288828901612837565b9150509295509295909350565b600067ffffffffffffffff821115612a0a57612a096124b1565b5b602082029050602081019050919050565b6000612a2e612a29846129ef565b612511565b90508083825260208201905060208402830185811115612a5157612a50612728565b5b835b81811015612a7a5780612a668882612326565b845260208401935050602081019050612a53565b5050509392505050565b600082601f830112612a9957612a98612496565b5b8135612aa9848260208601612a1b565b91505092915050565b60008060408385031215612ac957612ac86122d3565b5b600083013567ffffffffffffffff811115612ae757612ae66122d8565b5b612af385828601612a84565b925050602083013567ffffffffffffffff811115612b1457612b136122d8565b5b612b2085828601612796565b9150509250929050565b600081519050919050565b600082825260208201905092915050565b6000819050602082019050919050565b612b5f8161233b565b82525050565b6000612b718383612b56565b60208301905092915050565b6000602082019050919050565b6000612b9582612b2a565b612b9f8185612b35565b9350612baa83612b46565b8060005b83811015612bdb578151612bc28882612b65565b9750612bcd83612b7d565b925050600181019050612bae565b5085935050505092915050565b60006020820190508181036000830152612c028184612b8a565b905092915050565b600080600060608486031215612c2357612c226122d3565b5b6000612c3186828701612326565b935050602084013567ffffffffffffffff811115612c5257612c516122d8565b5b612c5e86828701612796565b925050604084013567ffffffffffffffff811115612c7f57612c7e6122d8565b5b612c8b86828701612796565b9150509250925092565b612c9e816122fd565b82525050565b6000602082019050612cb96000830184612c95565b92915050565b612cc881612460565b8114612cd357600080fd5b50565b600081359050612ce581612cbf565b92915050565b60008060408385031215612d0257612d016122d3565b5b6000612d1085828601612326565b9250506020612d2185828601612cd6565b9150509250929050565b600080600080600060a08688031215612d4757612d466122d3565b5b6000612d5588828901612326565b9550506020612d668882890161235c565b9450506040612d778882890161235c565b935050606086013567ffffffffffffffff811115612d9857612d976122d8565b5b612da488828901612837565b925050608086013567ffffffffffffffff811115612dc557612dc46122d8565b5b612dd1888289016125ae565b9150509295509295909350565b60008060408385031215612df557612df46122d3565b5b6000612e0385828601612326565b9250506020612e1485828601612326565b9150509250929050565b600080600080600060a08688031215612e3a57612e396122d3565b5b6000612e4888828901612326565b9550506020612e5988828901612326565b9450506040612e6a8882890161235c565b9350506060612e7b8882890161235c565b925050608086013567ffffffffffffffff811115612e9c57612e9b6122d8565b5b612ea888828901612837565b9150509295509295909350565b600060208284031215612ecb57612eca6122d3565b5b6000612ed984828501612326565b91505092915050565b600080600060608486031215612efb57612efa6122d3565b5b6000612f0986828701612326565b9350506020612f1a8682870161235c565b9250506040612f2b8682870161235c565b9150509250925092565b7f455243313135353a2062616c616e636520717565727920666f7220746865207a60008201527f65726f2061646472657373000000000000000000000000000000000000000000602082015250565b6000612f91602b8361265d565b9150612f9c82612f35565b604082019050919050565b60006020820190508181036000830152612fc081612f84565b9050919050565b7f4f776e61626c653a2063616c6c6572206973206e6f7420746865206f776e6572600082015250565b6000612ffd60208361265d565b915061300882612fc7565b602082019050919050565b6000602082019050818103600083015261302c81612ff0565b9050919050565b7f4e487b7100000000000000000000000000000000000000000000000000000000600052602260045260246000fd5b6000600282049050600182168061307a57607f821691505b6020821081141561308e5761308d613033565b5b50919050565b7f455243313135353a207472616e736665722063616c6c6572206973206e6f742060008201527f6f776e6572206e6f7220617070726f7665640000000000000000000000000000602082015250565b60006130f060328361265d565b91506130fb82613094565b604082019050919050565b6000602082019050818103600083015261311f816130e3565b9050919050565b7f455243313135353a206163636f756e747320616e6420696473206c656e67746860008201527f206d69736d617463680000000000000000000000000000000000000000000000602082015250565b600061318260298361265d565b915061318d82613126565b604082019050919050565b600060208201905081810360008301526131b181613175565b9050919050565b7f4e487b7100000000000000000000000000000000000000000000000000000000600052603260045260246000fd5b7f4e487b7100000000000000000000000000000000000000000000000000000000600052601160045260246000fd5b60006132218261233b565b91507fffffffffffffffffffffffffffffffffffffffffffffffffffffffffffffffff821415613254576132536131e7565b5b600182019050919050565b7f455243313135353a2063616c6c6572206973206e6f74206f776e6572206e6f7260008201527f20617070726f7665640000000000000000000000000000000000000000000000602082015250565b60006132bb60298361265d565b91506132c68261325f565b604082019050919050565b600060208201905081810360008301526132ea816132ae565b9050919050565b7f455243313135353a2073657474696e6720617070726f76616c2073746174757360008201527f20666f722073656c660000000000000000000000000000000000000000000000602082015250565b600061334d60298361265d565b9150613358826132f1565b604082019050919050565b6000602082019050818103600083015261337c81613340565b9050919050565b7f4f776e61626c653a206e6577206f776e657220697320746865207a65726f206160008201527f6464726573730000000000000000000000000000000000000000000000000000602082015250565b60006133df60268361265d565b91506133ea82613383565b604082019050919050565b6000602082019050818103600083015261340e816133d2565b9050919050565b7f455243313135353a206d696e7420746f20746865207a65726f2061646472657360008201527f7300000000000000000000000000000000000000000000000000000000000000602082015250565b600061347160218361265d565b915061347c82613415565b604082019050919050565b600060208201905081810360008301526134a081613464565b9050919050565b7f455243313135353a2069647320616e6420616d6f756e7473206c656e6774682060008201527f6d69736d61746368000000000000000000000000000000000000000000000000602082015250565b600061350360288361265d565b915061350e826134a7565b604082019050919050565b60006020820190508181036000830152613532816134f6565b9050919050565b60006135448261233b565b915061354f8361233b565b9250827fffffffffffffffffffffffffffffffffffffffffffffffffffffffffffffffff03821115613584576135836131e7565b5b828201905092915050565b600060408201905081810360008301526135a98185612b8a565b905081810360208301526135bd8184612b8a565b90509392505050565b7f455243313135353a207472616e7366657220746f20746865207a65726f20616460008201527f6472657373000000000000000000000000000000000000000000000000000000602082015250565b600061362260258361265d565b915061362d826135c6565b604082019050919050565b6000602082019050818103600083015261365181613615565b9050919050565b7f455243313135353a20696e73756666696369656e742062616c616e636520666f60008201527f72207472616e7366657200000000000000000000000000000000000000000000602082015250565b60006136b4602a8361265d565b91506136bf82613658565b604082019050919050565b600060208201905081810360008301526136e3816136a7565b9050919050565b7f455243313135353a206275726e2066726f6d20746865207a65726f206164647260008201527f6573730000000000000000000000000000000000000000000000000000000000602082015250565b600061374660238361265d565b9150613751826136ea565b604082019050919050565b6000602082019050818103600083015261377581613739565b9050919050565b7f455243313135353a206275726e20616d6f756e7420657863656564732062616c60008201527f616e636500000000000000000000000000000000000000000000000000000000602082015250565b60006137d860248361265d565b91506137e38261377c565b604082019050919050565b60006020820190508181036000830152613807816137cb565b9050919050565b600060408201905061382360008301856123b1565b61383060208301846123b1565b9392505050565b600081519050919050565b600082825260208201905092915050565b600061385e82613837565b6138688185613842565b935061387881856020860161266e565b613881816124a0565b840191505092915050565b600060a0820190506138a16000830188612c95565b6138ae6020830187612c95565b81810360408301526138c08186612b8a565b905081810360608301526138d48185612b8a565b905081810360808301526138e88184613853565b90509695505050505050565b60008151905061390381612407565b92915050565b60006020828403121561391f5761391e6122d3565b5b600061392d848285016138f4565b91505092915050565b60008160e01c9050919050565b600060033d11156139625760046000803e61395f600051613936565b90505b90565b600060443d1015613975576139f8565b61397d6122c9565b60043d036004823e80513d602482011167ffffffffffffffff821117156139a55750506139f8565b808201805167ffffffffffffffff8111156139c357505050506139f8565b80602083010160043d0385018111156139e05750505050506139f8565b6139ef826020018501866124e0565b82955050505050505b90565b7f455243313135353a207472616e7366657220746f206e6f6e204552433131353560008201527f526563656976657220696d706c656d656e746572000000000000000000000000602082015250565b6000613a5760348361265d565b9150613a62826139fb565b604082019050919050565b60006020820190508181036000830152613a8681613a4a565b9050919050565b7f455243313135353a204552433131353552656365697665722072656a6563746560008201527f6420746f6b656e73000000000000000000000000000000000000000000000000602082015250565b6000613ae960288361265d565b9150613af482613a8d565b604082019050919050565b60006020820190508181036000830152613b1881613adc565b9050919050565b600060a082019050613b346000830188612c95565b613b416020830187612c95565b613b4e60408301866123b1565b613b5b60608301856123b1565b8181036080830152613b6d8184613853565b9050969550505050505056fea2646970667358221220adf5a201b61f9ca29414423a6d5d0cd597d74d1e76d00d81ca236340b97bc40664736f6c63430008090033",
  "immutableReferences": {},
  "source": "// SPDX-License-Identifier: MIT\npragma solidity ^0.8.2;\nimport \"@openzeppelin/contracts/token/ERC1155/ERC1155.sol\";\nimport \"@openzeppelin/contracts/access/Ownable.sol\";\nimport \"@openzeppelin/contracts/token/ERC1155/extensions/ERC1155Burnable.sol\";\n\ncontract Mintsclub is ERC1155, Ownable, ERC1155Burnable {\n    constructor(string memory _name) ERC1155(_name) {\n    }\n\n\n    function setURI(string memory newuri) public onlyOwner {\n        _setURI(newuri);\n    }\n    function mint(address account, uint256 id, uint256 amount, bytes memory data, string memory tokenuri)\n        public\n        onlyOwner\n    {\n        _mint(account, id, amount, data);\n        setURI(tokenuri);\n    }\n    function mintBatch(address to, uint256[] memory ids, uint256[] memory amounts, bytes memory data)\n        public\n        onlyOwner\n    {\n        _mintBatch(to, ids, amounts, data);\n    }\n  \n}",
  "sourcePath": "/Users/tania/Documents/MintClub/contracts/Mintsclub.sol",
  "compiler": {
    "name": "solc",
    "version": "0.8.9+commit.e5eed63a.Emscripten.clang"
  },
  "schemaVersion": "3.4.3",
  "updatedAt": "2022-02-03T14:43:28.025Z",
  "devdoc": {
    "kind": "dev",
    "methods": {
      "balanceOf(address,uint256)": {
        "details": "See {IERC1155-balanceOf}. Requirements: - `account` cannot be the zero address."
      },
      "balanceOfBatch(address[],uint256[])": {
        "details": "See {IERC1155-balanceOfBatch}. Requirements: - `accounts` and `ids` must have the same length."
      },
      "isApprovedForAll(address,address)": {
        "details": "See {IERC1155-isApprovedForAll}."
      },
      "owner()": {
        "details": "Returns the address of the current owner."
      },
      "renounceOwnership()": {
        "details": "Leaves the contract without owner. It will not be possible to call `onlyOwner` functions anymore. Can only be called by the current owner. NOTE: Renouncing ownership will leave the contract without an owner, thereby removing any functionality that is only available to the owner."
      },
      "safeBatchTransferFrom(address,address,uint256[],uint256[],bytes)": {
        "details": "See {IERC1155-safeBatchTransferFrom}."
      },
      "safeTransferFrom(address,address,uint256,uint256,bytes)": {
        "details": "See {IERC1155-safeTransferFrom}."
      },
      "setApprovalForAll(address,bool)": {
        "details": "See {IERC1155-setApprovalForAll}."
      },
      "supportsInterface(bytes4)": {
        "details": "See {IERC165-supportsInterface}."
      },
      "transferOwnership(address)": {
        "details": "Transfers ownership of the contract to a new account (`newOwner`). Can only be called by the current owner."
      },
      "uri(uint256)": {
        "details": "See {IERC1155MetadataURI-uri}. This implementation returns the same URI for *all* token types. It relies on the token type ID substitution mechanism https://eips.ethereum.org/EIPS/eip-1155#metadata[defined in the EIP]. Clients calling this function must replace the `\\{id\\}` substring with the actual token type ID."
      }
    },
    "version": 1
  },
  "userdoc": {
    "kind": "user",
    "methods": {},
    "version": 1
  }
}