{
  "contractName": "MyToken",
  "abi": [
    {
      "inputs": [
        {
          "internalType": "string",
          "name": "name",
          "type": "string"
        },
        {
          "internalType": "string",
          "name": "symbol",
          "type": "string"
        }
      ],
      "stateMutability": "nonpayable",
      "type": "constructor"
    },
    {
      "anonymous": false,
      "inputs": [
        {
          "indexed": true,
          "internalType": "address",
          "name": "owner",
          "type": "address"
        },
        {
          "indexed": true,
          "internalType": "address",
          "name": "approved",
          "type": "address"
        },
        {
          "indexed": true,
          "internalType": "uint256",
          "name": "tokenId",
          "type": "uint256"
        }
      ],
      "name": "Approval",
      "type": "event"
    },
    {
      "anonymous": false,
      "inputs": [
        {
          "indexed": true,
          "internalType": "address",
          "name": "owner",
          "type": "address"
        },
        {
          "indexed": true,
          "internalType": "address",
          "name": "operator",
          "type": "address"
        },
        {
          "indexed": false,
          "internalType": "bool",
          "name": "approved",
          "type": "bool"
        }
      ],
      "name": "ApprovalForAll",
      "type": "event"
    },
    {
      "anonymous": false,
      "inputs": [
        {
          "indexed": true,
          "internalType": "address",
          "name": "previousOwner",
          "type": "address"
        },
        {
          "indexed": true,
          "internalType": "address",
          "name": "newOwner",
          "type": "address"
        }
      ],
      "name": "OwnershipTransferred",
      "type": "event"
    },
    {
      "anonymous": false,
      "inputs": [
        {
          "indexed": true,
          "internalType": "uint256",
          "name": "tokenId",
          "type": "uint256"
        },
        {
          "indexed": false,
          "internalType": "address",
          "name": "owner",
          "type": "address"
        }
      ],
      "name": "TokenMinted",
      "type": "event"
    },
    {
      "anonymous": false,
      "inputs": [
        {
          "indexed": true,
          "internalType": "address",
          "name": "from",
          "type": "address"
        },
        {
          "indexed": true,
          "internalType": "address",
          "name": "to",
          "type": "address"
        },
        {
          "indexed": true,
          "internalType": "uint256",
          "name": "tokenId",
          "type": "uint256"
        }
      ],
      "name": "Transfer",
      "type": "event"
    },
    {
      "inputs": [
        {
          "internalType": "address",
          "name": "to",
          "type": "address"
        },
        {
          "internalType": "uint256",
          "name": "tokenId",
          "type": "uint256"
        }
      ],
      "name": "approve",
      "outputs": [],
      "stateMutability": "nonpayable",
      "type": "function"
    },
    {
      "inputs": [
        {
          "internalType": "address",
          "name": "owner",
          "type": "address"
        }
      ],
      "name": "balanceOf",
      "outputs": [
        {
          "internalType": "uint256",
          "name": "",
          "type": "uint256"
        }
      ],
      "stateMutability": "view",
      "type": "function"
    },
    {
      "inputs": [
        {
          "internalType": "uint256",
          "name": "tokenId",
          "type": "uint256"
        }
      ],
      "name": "burn",
      "outputs": [],
      "stateMutability": "nonpayable",
      "type": "function"
    },
    {
      "inputs": [
        {
          "internalType": "uint256",
          "name": "tokenId",
          "type": "uint256"
        }
      ],
      "name": "getApproved",
      "outputs": [
        {
          "internalType": "address",
          "name": "",
          "type": "address"
        }
      ],
      "stateMutability": "view",
      "type": "function"
    },
    {
      "inputs": [
        {
          "internalType": "address",
          "name": "owner",
          "type": "address"
        },
        {
          "internalType": "address",
          "name": "operator",
          "type": "address"
        }
      ],
      "name": "isApprovedForAll",
      "outputs": [
        {
          "internalType": "bool",
          "name": "",
          "type": "bool"
        }
      ],
      "stateMutability": "view",
      "type": "function"
    },
    {
      "inputs": [],
      "name": "name",
      "outputs": [
        {
          "internalType": "string",
          "name": "",
          "type": "string"
        }
      ],
      "stateMutability": "view",
      "type": "function"
    },
    {
      "inputs": [],
      "name": "owner",
      "outputs": [
        {
          "internalType": "address",
          "name": "",
          "type": "address"
        }
      ],
      "stateMutability": "view",
      "type": "function"
    },
    {
      "inputs": [
        {
          "internalType": "uint256",
          "name": "tokenId",
          "type": "uint256"
        }
      ],
      "name": "ownerOf",
      "outputs": [
        {
          "internalType": "address",
          "name": "",
          "type": "address"
        }
      ],
      "stateMutability": "view",
      "type": "function"
    },
    {
      "inputs": [],
      "name": "renounceOwnership",
      "outputs": [],
      "stateMutability": "nonpayable",
      "type": "function"
    },
    {
      "inputs": [
        {
          "internalType": "address",
          "name": "from",
          "type": "address"
        },
        {
          "internalType": "address",
          "name": "to",
          "type": "address"
        },
        {
          "internalType": "uint256",
          "name": "tokenId",
          "type": "uint256"
        }
      ],
      "name": "safeTransferFrom",
      "outputs": [],
      "stateMutability": "nonpayable",
      "type": "function"
    },
    {
      "inputs": [
        {
          "internalType": "address",
          "name": "from",
          "type": "address"
        },
        {
          "internalType": "address",
          "name": "to",
          "type": "address"
        },
        {
          "internalType": "uint256",
          "name": "tokenId",
          "type": "uint256"
        },
        {
          "internalType": "bytes",
          "name": "_data",
          "type": "bytes"
        }
      ],
      "name": "safeTransferFrom",
      "outputs": [],
      "stateMutability": "nonpayable",
      "type": "function"
    },
    {
      "inputs": [
        {
          "internalType": "address",
          "name": "operator",
          "type": "address"
        },
        {
          "internalType": "bool",
          "name": "approved",
          "type": "bool"
        }
      ],
      "name": "setApprovalForAll",
      "outputs": [],
      "stateMutability": "nonpayable",
      "type": "function"
    },
    {
      "inputs": [
        {
          "internalType": "bytes4",
          "name": "interfaceId",
          "type": "bytes4"
        }
      ],
      "name": "supportsInterface",
      "outputs": [
        {
          "internalType": "bool",
          "name": "",
          "type": "bool"
        }
      ],
      "stateMutability": "view",
      "type": "function"
    },
    {
      "inputs": [],
      "name": "symbol",
      "outputs": [
        {
          "internalType": "string",
          "name": "",
          "type": "string"
        }
      ],
      "stateMutability": "view",
      "type": "function"
    },
    {
      "inputs": [
        {
          "internalType": "address",
          "name": "from",
          "type": "address"
        },
        {
          "internalType": "address",
          "name": "to",
          "type": "address"
        },
        {
          "internalType": "uint256",
          "name": "tokenId",
          "type": "uint256"
        }
      ],
      "name": "transferFrom",
      "outputs": [],
      "stateMutability": "nonpayable",
      "type": "function"
    },
    {
      "inputs": [
        {
          "internalType": "address",
          "name": "newOwner",
          "type": "address"
        }
      ],
      "name": "transferOwnership",
      "outputs": [],
      "stateMutability": "nonpayable",
      "type": "function"
    },
    {
      "inputs": [
        {
          "internalType": "address",
          "name": "to",
          "type": "address"
        },
        {
          "internalType": "string",
          "name": "tokenUri",
          "type": "string"
        }
      ],
      "name": "safeMint",
      "outputs": [
        {
          "internalType": "uint256",
          "name": "",
          "type": "uint256"
        }
      ],
      "stateMutability": "nonpayable",
      "type": "function"
    },
    {
      "inputs": [
        {
          "internalType": "address",
          "name": "to",
          "type": "address"
        },
        {
          "internalType": "string[]",
          "name": "tokenUriList",
          "type": "string[]"
        },
        {
          "internalType": "uint256",
          "name": "supply",
          "type": "uint256"
        }
      ],
      "name": "batchMint",
      "outputs": [
        {
          "internalType": "uint256[]",
          "name": "",
          "type": "uint256[]"
        }
      ],
      "stateMutability": "nonpayable",
      "type": "function"
    },
    {
      "inputs": [
        {
          "internalType": "uint256",
          "name": "tokenId",
          "type": "uint256"
        }
      ],
      "name": "tokenURI",
      "outputs": [
        {
          "internalType": "string",
          "name": "",
          "type": "string"
        }
      ],
      "stateMutability": "view",
      "type": "function"
    }
  ],
  "bytecode": "0x60806040523480156200001157600080fd5b5060405162003c9c38038062003c9c8339818101604052810190620000379190620003b0565b818181600090805190602001906200005192919062000163565b5080600190805190602001906200006a92919062000163565b5050506200008d620000816200009560201b60201c565b6200009d60201b60201c565b50506200049a565b600033905090565b6000600760009054906101000a900473ffffffffffffffffffffffffffffffffffffffff16905081600760006101000a81548173ffffffffffffffffffffffffffffffffffffffff021916908373ffffffffffffffffffffffffffffffffffffffff1602179055508173ffffffffffffffffffffffffffffffffffffffff168173ffffffffffffffffffffffffffffffffffffffff167f8be0079c531659141344cd1fd0a4f28419497f9722a3daafe3b4186f6b6457e060405160405180910390a35050565b828054620001719062000464565b90600052602060002090601f016020900481019282620001955760008555620001e1565b82601f10620001b057805160ff1916838001178555620001e1565b82800160010185558215620001e1579182015b82811115620001e0578251825591602001919060010190620001c3565b5b509050620001f09190620001f4565b5090565b5b808211156200020f576000816000905550600101620001f5565b5090565b6000604051905090565b600080fd5b600080fd5b600080fd5b600080fd5b6000601f19601f8301169050919050565b7f4e487b7100000000000000000000000000000000000000000000000000000000600052604160045260246000fd5b6200027c8262000231565b810181811067ffffffffffffffff821117156200029e576200029d62000242565b5b80604052505050565b6000620002b362000213565b9050620002c1828262000271565b919050565b600067ffffffffffffffff821115620002e457620002e362000242565b5b620002ef8262000231565b9050602081019050919050565b60005b838110156200031c578082015181840152602081019050620002ff565b838111156200032c576000848401525b50505050565b6000620003496200034384620002c6565b620002a7565b9050828152602081018484840111156200036857620003676200022c565b5b62000375848285620002fc565b509392505050565b600082601f83011262000395576200039462000227565b5b8151620003a784826020860162000332565b91505092915050565b60008060408385031215620003ca57620003c96200021d565b5b600083015167ffffffffffffffff811115620003eb57620003ea62000222565b5b620003f9858286016200037d565b925050602083015167ffffffffffffffff8111156200041d576200041c62000222565b5b6200042b858286016200037d565b9150509250929050565b7f4e487b7100000000000000000000000000000000000000000000000000000000600052602260045260246000fd5b600060028204905060018216806200047d57607f821691505b6020821081141562000494576200049362000435565b5b50919050565b6137f280620004aa6000396000f3fe608060405234801561001057600080fd5b50600436106101215760003560e01c8063715018a6116100ad578063b88d4fde11610071578063b88d4fde14610306578063c87b56dd14610322578063d204c45e14610352578063e985e9c514610382578063f2fde38b146103b257610121565b8063715018a6146102745780638da5cb5b1461027e57806395d89b411461029c578063a22cb465146102ba578063b5d279e7146102d657610121565b806323b872dd116100f457806323b872dd146101c057806342842e0e146101dc57806342966c68146101f85780636352211e1461021457806370a082311461024457610121565b806301ffc9a71461012657806306fdde0314610156578063081812fc14610174578063095ea7b3146101a4575b600080fd5b610140600480360381019061013b9190612123565b6103ce565b60405161014d919061216b565b60405180910390f35b61015e6104b0565b60405161016b919061221f565b60405180910390f35b61018e60048036038101906101899190612277565b610542565b60405161019b91906122e5565b60405180910390f35b6101be60048036038101906101b9919061232c565b6105c7565b005b6101da60048036038101906101d5919061236c565b6106df565b005b6101f660048036038101906101f1919061236c565b61073f565b005b610212600480360381019061020d9190612277565b61075f565b005b61022e60048036038101906102299190612277565b6107bb565b60405161023b91906122e5565b60405180910390f35b61025e600480360381019061025991906123bf565b61086d565b60405161026b91906123fb565b60405180910390f35b61027c610925565b005b6102866109ad565b60405161029391906122e5565b60405180910390f35b6102a46109d7565b6040516102b1919061221f565b60405180910390f35b6102d460048036038101906102cf9190612442565b610a69565b005b6102f060048036038101906102eb919061269d565b610bea565b6040516102fd91906127ca565b60405180910390f35b610320600480360381019061031b919061288d565b610d71565b005b61033c60048036038101906103379190612277565b610dd3565b604051610349919061221f565b60405180910390f35b61036c60048036038101906103679190612910565b610de5565b60405161037991906123fb565b60405180910390f35b61039c6004803603810190610397919061296c565b610ee6565b6040516103a9919061216b565b60405180910390f35b6103cc60048036038101906103c791906123bf565b610f7a565b005b60007f80ac58cd000000000000000000000000000000000000000000000000000000007bffffffffffffffffffffffffffffffffffffffffffffffffffffffff1916827bffffffffffffffffffffffffffffffffffffffffffffffffffffffff1916148061049957507f5b5e139f000000000000000000000000000000000000000000000000000000007bffffffffffffffffffffffffffffffffffffffffffffffffffffffff1916827bffffffffffffffffffffffffffffffffffffffffffffffffffffffff1916145b806104a957506104a882611072565b5b9050919050565b6060600080546104bf906129db565b80601f01602080910402602001604051908101604052809291908181526020018280546104eb906129db565b80156105385780601f1061050d57610100808354040283529160200191610538565b820191906000526020600020905b81548152906001019060200180831161051b57829003601f168201915b5050505050905090565b600061054d826110dc565b61058c576040517f08c379a000000000000000000000000000000000000000000000000000000000815260040161058390612a7f565b60405180910390fd5b6004600083815260200190815260200160002060009054906101000a900473ffffffffffffffffffffffffffffffffffffffff169050919050565b60006105d2826107bb565b90508073ffffffffffffffffffffffffffffffffffffffff168373ffffffffffffffffffffffffffffffffffffffff161415610643576040517f08c379a000000000000000000000000000000000000000000000000000000000815260040161063a90612b11565b60405180910390fd5b8073ffffffffffffffffffffffffffffffffffffffff16610662611148565b73ffffffffffffffffffffffffffffffffffffffff16148061069157506106908161068b611148565b610ee6565b5b6106d0576040517f08c379a00000000000000000000000000000000000000000000000000000000081526004016106c790612ba3565b60405180910390fd5b6106da8383611150565b505050565b6106f06106ea611148565b82611209565b61072f576040517f08c379a000000000000000000000000000000000000000000000000000000000815260040161072690612c35565b60405180910390fd5b61073a8383836112e7565b505050565b61075a83838360405180602001604052806000815250610d71565b505050565b61077061076a611148565b82611209565b6107af576040517f08c379a00000000000000000000000000000000000000000000000000000000081526004016107a690612cc7565b60405180910390fd5b6107b881611543565b50565b6000806002600084815260200190815260200160002060009054906101000a900473ffffffffffffffffffffffffffffffffffffffff169050600073ffffffffffffffffffffffffffffffffffffffff168173ffffffffffffffffffffffffffffffffffffffff161415610864576040517f08c379a000000000000000000000000000000000000000000000000000000000815260040161085b90612d59565b60405180910390fd5b80915050919050565b60008073ffffffffffffffffffffffffffffffffffffffff168273ffffffffffffffffffffffffffffffffffffffff1614156108de576040517f08c379a00000000000000000000000000000000000000000000000000000000081526004016108d590612deb565b60405180910390fd5b600360008373ffffffffffffffffffffffffffffffffffffffff1673ffffffffffffffffffffffffffffffffffffffff168152602001908152602001600020549050919050565b61092d611148565b73ffffffffffffffffffffffffffffffffffffffff1661094b6109ad565b73ffffffffffffffffffffffffffffffffffffffff16146109a1576040517f08c379a000000000000000000000000000000000000000000000000000000000815260040161099890612e57565b60405180910390fd5b6109ab600061154f565b565b6000600760009054906101000a900473ffffffffffffffffffffffffffffffffffffffff16905090565b6060600180546109e6906129db565b80601f0160208091040260200160405190810160405280929190818152602001828054610a12906129db565b8015610a5f5780601f10610a3457610100808354040283529160200191610a5f565b820191906000526020600020905b815481529060010190602001808311610a4257829003601f168201915b5050505050905090565b610a71611148565b73ffffffffffffffffffffffffffffffffffffffff168273ffffffffffffffffffffffffffffffffffffffff161415610adf576040517f08c379a0000000000000000000000000000000000000000000000000000000008152600401610ad690612ec3565b60405180910390fd5b8060056000610aec611148565b73ffffffffffffffffffffffffffffffffffffffff1673ffffffffffffffffffffffffffffffffffffffff16815260200190815260200160002060008473ffffffffffffffffffffffffffffffffffffffff1673ffffffffffffffffffffffffffffffffffffffff16815260200190815260200160002060006101000a81548160ff0219169083151502179055508173ffffffffffffffffffffffffffffffffffffffff16610b99611148565b73ffffffffffffffffffffffffffffffffffffffff167f17307eab39ab6107e8899845ad3d59bd9653f200f220920489ca2b5937696c3183604051610bde919061216b565b60405180910390a35050565b6060610bf4611148565b73ffffffffffffffffffffffffffffffffffffffff16610c126109ad565b73ffffffffffffffffffffffffffffffffffffffff1614610c68576040517f08c379a0000000000000000000000000000000000000000000000000000000008152600401610c5f90612e57565b60405180910390fd5b81835114610cab576040517f08c379a0000000000000000000000000000000000000000000000000000000008152600401610ca290612f2f565b60405180910390fd5b60008267ffffffffffffffff811115610cc757610cc6612487565b5b604051908082528060200260200182016040528015610cf55781602001602082028036833780820191505090505b50905060005b83811015610d65576000858281518110610d1857610d17612f4f565b5b602002602001015190506000610d2e8883610de5565b905080848481518110610d4457610d43612f4f565b5b60200260200101818152505050508080610d5d90612fad565b915050610cfb565b50809150509392505050565b610d82610d7c611148565b83611209565b610dc1576040517f08c379a0000000000000000000000000000000000000000000000000000000008152600401610db890612c35565b60405180910390fd5b610dcd84848484611615565b50505050565b6060610dde82611671565b9050919050565b6000610def611148565b73ffffffffffffffffffffffffffffffffffffffff16610e0d6109ad565b73ffffffffffffffffffffffffffffffffffffffff1614610e63576040517f08c379a0000000000000000000000000000000000000000000000000000000008152600401610e5a90612e57565b60405180910390fd5b610e7683610e7160086117c3565b6117d1565b610e89610e8360086117c3565b836117ef565b610e936008611863565b610e9d60086117c3565b7f3a5398bda6f1f57d6c96834fa9bf02b5517bdc847d14312015a917ba421c31c984604051610ecc91906122e5565b60405180910390a2610ede60086117c3565b905092915050565b6000600560008473ffffffffffffffffffffffffffffffffffffffff1673ffffffffffffffffffffffffffffffffffffffff16815260200190815260200160002060008373ffffffffffffffffffffffffffffffffffffffff1673ffffffffffffffffffffffffffffffffffffffff16815260200190815260200160002060009054906101000a900460ff16905092915050565b610f82611148565b73ffffffffffffffffffffffffffffffffffffffff16610fa06109ad565b73ffffffffffffffffffffffffffffffffffffffff1614610ff6576040517f08c379a0000000000000000000000000000000000000000000000000000000008152600401610fed90612e57565b60405180910390fd5b600073ffffffffffffffffffffffffffffffffffffffff168173ffffffffffffffffffffffffffffffffffffffff161415611066576040517f08c379a000000000000000000000000000000000000000000000000000000000815260040161105d90613068565b60405180910390fd5b61106f8161154f565b50565b60007f01ffc9a7000000000000000000000000000000000000000000000000000000007bffffffffffffffffffffffffffffffffffffffffffffffffffffffff1916827bffffffffffffffffffffffffffffffffffffffffffffffffffffffff1916149050919050565b60008073ffffffffffffffffffffffffffffffffffffffff166002600084815260200190815260200160002060009054906101000a900473ffffffffffffffffffffffffffffffffffffffff1673ffffffffffffffffffffffffffffffffffffffff1614159050919050565b600033905090565b816004600083815260200190815260200160002060006101000a81548173ffffffffffffffffffffffffffffffffffffffff021916908373ffffffffffffffffffffffffffffffffffffffff160217905550808273ffffffffffffffffffffffffffffffffffffffff166111c3836107bb565b73ffffffffffffffffffffffffffffffffffffffff167f8c5be1e5ebec7d5bd14f71427d1e84f3dd0314c0f7b2291e5b200ac8c7c3b92560405160405180910390a45050565b6000611214826110dc565b611253576040517f08c379a000000000000000000000000000000000000000000000000000000000815260040161124a906130fa565b60405180910390fd5b600061125e836107bb565b90508073ffffffffffffffffffffffffffffffffffffffff168473ffffffffffffffffffffffffffffffffffffffff1614806112cd57508373ffffffffffffffffffffffffffffffffffffffff166112b584610542565b73ffffffffffffffffffffffffffffffffffffffff16145b806112de57506112dd8185610ee6565b5b91505092915050565b8273ffffffffffffffffffffffffffffffffffffffff16611307826107bb565b73ffffffffffffffffffffffffffffffffffffffff161461135d576040517f08c379a00000000000000000000000000000000000000000000000000000000081526004016113549061318c565b60405180910390fd5b600073ffffffffffffffffffffffffffffffffffffffff168273ffffffffffffffffffffffffffffffffffffffff1614156113cd576040517f08c379a00000000000000000000000000000000000000000000000000000000081526004016113c49061321e565b60405180910390fd5b6113d8838383611879565b6113e3600082611150565b6001600360008573ffffffffffffffffffffffffffffffffffffffff1673ffffffffffffffffffffffffffffffffffffffff1681526020019081526020016000206000828254611433919061323e565b925050819055506001600360008473ffffffffffffffffffffffffffffffffffffffff1673ffffffffffffffffffffffffffffffffffffffff168152602001908152602001600020600082825461148a9190613272565b92505081905550816002600083815260200190815260200160002060006101000a81548173ffffffffffffffffffffffffffffffffffffffff021916908373ffffffffffffffffffffffffffffffffffffffff160217905550808273ffffffffffffffffffffffffffffffffffffffff168473ffffffffffffffffffffffffffffffffffffffff167fddf252ad1be2c89b69c2b068fc378daa952ba7f163c4a11628f55a4df523b3ef60405160405180910390a4505050565b61154c8161187e565b50565b6000600760009054906101000a900473ffffffffffffffffffffffffffffffffffffffff16905081600760006101000a81548173ffffffffffffffffffffffffffffffffffffffff021916908373ffffffffffffffffffffffffffffffffffffffff1602179055508173ffffffffffffffffffffffffffffffffffffffff168173ffffffffffffffffffffffffffffffffffffffff167f8be0079c531659141344cd1fd0a4f28419497f9722a3daafe3b4186f6b6457e060405160405180910390a35050565b6116208484846112e7565b61162c848484846118d1565b61166b576040517f08c379a00000000000000000000000000000000000000000000000000000000081526004016116629061333a565b60405180910390fd5b50505050565b606061167c826110dc565b6116bb576040517f08c379a00000000000000000000000000000000000000000000000000000000081526004016116b2906133cc565b60405180910390fd5b60006006600084815260200190815260200160002080546116db906129db565b80601f0160208091040260200160405190810160405280929190818152602001828054611707906129db565b80156117545780601f1061172957610100808354040283529160200191611754565b820191906000526020600020905b81548152906001019060200180831161173757829003601f168201915b505050505090506000611765611a68565b905060008151141561177b5781925050506117be565b6000825111156117b0578082604051602001611798929190613428565b604051602081830303815290604052925050506117be565b6117b984611a7f565b925050505b919050565b600081600001549050919050565b6117eb828260405180602001604052806000815250611b26565b5050565b6117f8826110dc565b611837576040517f08c379a000000000000000000000000000000000000000000000000000000000815260040161182e906134be565b60405180910390fd5b8060066000848152602001908152602001600020908051906020019061185e929190611fd4565b505050565b6001816000016000828254019250508190555050565b505050565b61188781611b81565b60006006600083815260200190815260200160002080546118a7906129db565b9050146118ce576006600082815260200190815260200160002060006118cd919061205a565b5b50565b60006118f28473ffffffffffffffffffffffffffffffffffffffff16611c92565b15611a5b578373ffffffffffffffffffffffffffffffffffffffff1663150b7a0261191b611148565b8786866040518563ffffffff1660e01b815260040161193d9493929190613533565b602060405180830381600087803b15801561195757600080fd5b505af192505050801561198857506040513d601f19601f820116820180604052508101906119859190613594565b60015b611a0b573d80600081146119b8576040519150601f19603f3d011682016040523d82523d6000602084013e6119bd565b606091505b50600081511415611a03576040517f08c379a00000000000000000000000000000000000000000000000000000000081526004016119fa9061333a565b60405180910390fd5b805181602001fd5b63150b7a0260e01b7bffffffffffffffffffffffffffffffffffffffffffffffffffffffff1916817bffffffffffffffffffffffffffffffffffffffffffffffffffffffff191614915050611a60565b600190505b949350505050565b606060405180602001604052806000815250905090565b6060611a8a826110dc565b611ac9576040517f08c379a0000000000000000000000000000000000000000000000000000000008152600401611ac090613633565b60405180910390fd5b6000611ad3611a68565b90506000815111611af35760405180602001604052806000815250611b1e565b80611afd84611ca5565b604051602001611b0e929190613428565b6040516020818303038152906040525b915050919050565b611b308383611e06565b611b3d60008484846118d1565b611b7c576040517f08c379a0000000000000000000000000000000000000000000000000000000008152600401611b739061333a565b60405180910390fd5b505050565b6000611b8c826107bb565b9050611b9a81600084611879565b611ba5600083611150565b6001600360008373ffffffffffffffffffffffffffffffffffffffff1673ffffffffffffffffffffffffffffffffffffffff1681526020019081526020016000206000828254611bf5919061323e565b925050819055506002600083815260200190815260200160002060006101000a81549073ffffffffffffffffffffffffffffffffffffffff021916905581600073ffffffffffffffffffffffffffffffffffffffff168273ffffffffffffffffffffffffffffffffffffffff167fddf252ad1be2c89b69c2b068fc378daa952ba7f163c4a11628f55a4df523b3ef60405160405180910390a45050565b600080823b905060008111915050919050565b60606000821415611ced576040518060400160405280600181526020017f30000000000000000000000000000000000000000000000000000000000000008152509050611e01565b600082905060005b60008214611d1f578080611d0890612fad565b915050600a82611d189190613682565b9150611cf5565b60008167ffffffffffffffff811115611d3b57611d3a612487565b5b6040519080825280601f01601f191660200182016040528015611d6d5781602001600182028036833780820191505090505b5090505b60008514611dfa57600182611d86919061323e565b9150600a85611d9591906136b3565b6030611da19190613272565b60f81b818381518110611db757611db6612f4f565b5b60200101907effffffffffffffffffffffffffffffffffffffffffffffffffffffffffffff1916908160001a905350600a85611df39190613682565b9450611d71565b8093505050505b919050565b600073ffffffffffffffffffffffffffffffffffffffff168273ffffffffffffffffffffffffffffffffffffffff161415611e76576040517f08c379a0000000000000000000000000000000000000000000000000000000008152600401611e6d90613730565b60405180910390fd5b611e7f816110dc565b15611ebf576040517f08c379a0000000000000000000000000000000000000000000000000000000008152600401611eb69061379c565b60405180910390fd5b611ecb60008383611879565b6001600360008473ffffffffffffffffffffffffffffffffffffffff1673ffffffffffffffffffffffffffffffffffffffff1681526020019081526020016000206000828254611f1b9190613272565b92505081905550816002600083815260200190815260200160002060006101000a81548173ffffffffffffffffffffffffffffffffffffffff021916908373ffffffffffffffffffffffffffffffffffffffff160217905550808273ffffffffffffffffffffffffffffffffffffffff16600073ffffffffffffffffffffffffffffffffffffffff167fddf252ad1be2c89b69c2b068fc378daa952ba7f163c4a11628f55a4df523b3ef60405160405180910390a45050565b828054611fe0906129db565b90600052602060002090601f0160209004810192826120025760008555612049565b82601f1061201b57805160ff1916838001178555612049565b82800160010185558215612049579182015b8281111561204857825182559160200191906001019061202d565b5b509050612056919061209a565b5090565b508054612066906129db565b6000825580601f106120785750612097565b601f016020900490600052602060002090810190612096919061209a565b5b50565b5b808211156120b357600081600090555060010161209b565b5090565b6000604051905090565b600080fd5b600080fd5b60007fffffffff0000000000000000000000000000000000000000000000000000000082169050919050565b612100816120cb565b811461210b57600080fd5b50565b60008135905061211d816120f7565b92915050565b600060208284031215612139576121386120c1565b5b60006121478482850161210e565b91505092915050565b60008115159050919050565b61216581612150565b82525050565b6000602082019050612180600083018461215c565b92915050565b600081519050919050565b600082825260208201905092915050565b60005b838110156121c05780820151818401526020810190506121a5565b838111156121cf576000848401525b50505050565b6000601f19601f8301169050919050565b60006121f182612186565b6121fb8185612191565b935061220b8185602086016121a2565b612214816121d5565b840191505092915050565b6000602082019050818103600083015261223981846121e6565b905092915050565b6000819050919050565b61225481612241565b811461225f57600080fd5b50565b6000813590506122718161224b565b92915050565b60006020828403121561228d5761228c6120c1565b5b600061229b84828501612262565b91505092915050565b600073ffffffffffffffffffffffffffffffffffffffff82169050919050565b60006122cf826122a4565b9050919050565b6122df816122c4565b82525050565b60006020820190506122fa60008301846122d6565b92915050565b612309816122c4565b811461231457600080fd5b50565b60008135905061232681612300565b92915050565b60008060408385031215612343576123426120c1565b5b600061235185828601612317565b925050602061236285828601612262565b9150509250929050565b600080600060608486031215612385576123846120c1565b5b600061239386828701612317565b93505060206123a486828701612317565b92505060406123b586828701612262565b9150509250925092565b6000602082840312156123d5576123d46120c1565b5b60006123e384828501612317565b91505092915050565b6123f581612241565b82525050565b600060208201905061241060008301846123ec565b92915050565b61241f81612150565b811461242a57600080fd5b50565b60008135905061243c81612416565b92915050565b60008060408385031215612459576124586120c1565b5b600061246785828601612317565b92505060206124788582860161242d565b9150509250929050565b600080fd5b7f4e487b7100000000000000000000000000000000000000000000000000000000600052604160045260246000fd5b6124bf826121d5565b810181811067ffffffffffffffff821117156124de576124dd612487565b5b80604052505050565b60006124f16120b7565b90506124fd82826124b6565b919050565b600067ffffffffffffffff82111561251d5761251c612487565b5b602082029050602081019050919050565b600080fd5b600080fd5b600067ffffffffffffffff82111561255357612552612487565b5b61255c826121d5565b9050602081019050919050565b82818337600083830152505050565b600061258b61258684612538565b6124e7565b9050828152602081018484840111156125a7576125a6612533565b5b6125b2848285612569565b509392505050565b600082601f8301126125cf576125ce612482565b5b81356125df848260208601612578565b91505092915050565b60006125fb6125f684612502565b6124e7565b9050808382526020820190506020840283018581111561261e5761261d61252e565b5b835b8181101561266557803567ffffffffffffffff81111561264357612642612482565b5b80860161265089826125ba565b85526020850194505050602081019050612620565b5050509392505050565b600082601f83011261268457612683612482565b5b81356126948482602086016125e8565b91505092915050565b6000806000606084860312156126b6576126b56120c1565b5b60006126c486828701612317565b935050602084013567ffffffffffffffff8111156126e5576126e46120c6565b5b6126f18682870161266f565b925050604061270286828701612262565b9150509250925092565b600081519050919050565b600082825260208201905092915050565b6000819050602082019050919050565b61274181612241565b82525050565b60006127538383612738565b60208301905092915050565b6000602082019050919050565b60006127778261270c565b6127818185612717565b935061278c83612728565b8060005b838110156127bd5781516127a48882612747565b97506127af8361275f565b925050600181019050612790565b5085935050505092915050565b600060208201905081810360008301526127e4818461276c565b905092915050565b600067ffffffffffffffff82111561280757612806612487565b5b612810826121d5565b9050602081019050919050565b600061283061282b846127ec565b6124e7565b90508281526020810184848401111561284c5761284b612533565b5b612857848285612569565b509392505050565b600082601f83011261287457612873612482565b5b813561288484826020860161281d565b91505092915050565b600080600080608085870312156128a7576128a66120c1565b5b60006128b587828801612317565b94505060206128c687828801612317565b93505060406128d787828801612262565b925050606085013567ffffffffffffffff8111156128f8576128f76120c6565b5b6129048782880161285f565b91505092959194509250565b60008060408385031215612927576129266120c1565b5b600061293585828601612317565b925050602083013567ffffffffffffffff811115612956576129556120c6565b5b612962858286016125ba565b9150509250929050565b60008060408385031215612983576129826120c1565b5b600061299185828601612317565b92505060206129a285828601612317565b9150509250929050565b7f4e487b7100000000000000000000000000000000000000000000000000000000600052602260045260246000fd5b600060028204905060018216806129f357607f821691505b60208210811415612a0757612a066129ac565b5b50919050565b7f4552433732313a20617070726f76656420717565727920666f72206e6f6e657860008201527f697374656e7420746f6b656e0000000000000000000000000000000000000000602082015250565b6000612a69602c83612191565b9150612a7482612a0d565b604082019050919050565b60006020820190508181036000830152612a9881612a5c565b9050919050565b7f4552433732313a20617070726f76616c20746f2063757272656e74206f776e6560008201527f7200000000000000000000000000000000000000000000000000000000000000602082015250565b6000612afb602183612191565b9150612b0682612a9f565b604082019050919050565b60006020820190508181036000830152612b2a81612aee565b9050919050565b7f4552433732313a20617070726f76652063616c6c6572206973206e6f74206f7760008201527f6e6572206e6f7220617070726f76656420666f7220616c6c0000000000000000602082015250565b6000612b8d603883612191565b9150612b9882612b31565b604082019050919050565b60006020820190508181036000830152612bbc81612b80565b9050919050565b7f4552433732313a207472616e736665722063616c6c6572206973206e6f74206f60008201527f776e6572206e6f7220617070726f766564000000000000000000000000000000602082015250565b6000612c1f603183612191565b9150612c2a82612bc3565b604082019050919050565b60006020820190508181036000830152612c4e81612c12565b9050919050565b7f4552433732314275726e61626c653a2063616c6c6572206973206e6f74206f7760008201527f6e6572206e6f7220617070726f76656400000000000000000000000000000000602082015250565b6000612cb1603083612191565b9150612cbc82612c55565b604082019050919050565b60006020820190508181036000830152612ce081612ca4565b9050919050565b7f4552433732313a206f776e657220717565727920666f72206e6f6e657869737460008201527f656e7420746f6b656e0000000000000000000000000000000000000000000000602082015250565b6000612d43602983612191565b9150612d4e82612ce7565b604082019050919050565b60006020820190508181036000830152612d7281612d36565b9050919050565b7f4552433732313a2062616c616e636520717565727920666f7220746865207a6560008201527f726f206164647265737300000000000000000000000000000000000000000000602082015250565b6000612dd5602a83612191565b9150612de082612d79565b604082019050919050565b60006020820190508181036000830152612e0481612dc8565b9050919050565b7f4f776e61626c653a2063616c6c6572206973206e6f7420746865206f776e6572600082015250565b6000612e41602083612191565b9150612e4c82612e0b565b602082019050919050565b60006020820190508181036000830152612e7081612e34565b9050919050565b7f4552433732313a20617070726f766520746f2063616c6c657200000000000000600082015250565b6000612ead601983612191565b9150612eb882612e77565b602082019050919050565b60006020820190508181036000830152612edc81612ea0565b9050919050565b7f737570706c7920262055524973206c656e677468206d69736d61746368000000600082015250565b6000612f19601d83612191565b9150612f2482612ee3565b602082019050919050565b60006020820190508181036000830152612f4881612f0c565b9050919050565b7f4e487b7100000000000000000000000000000000000000000000000000000000600052603260045260246000fd5b7f4e487b7100000000000000000000000000000000000000000000000000000000600052601160045260246000fd5b6000612fb882612241565b91507fffffffffffffffffffffffffffffffffffffffffffffffffffffffffffffffff821415612feb57612fea612f7e565b5b600182019050919050565b7f4f776e61626c653a206e6577206f776e657220697320746865207a65726f206160008201527f6464726573730000000000000000000000000000000000000000000000000000602082015250565b6000613052602683612191565b915061305d82612ff6565b604082019050919050565b6000602082019050818103600083015261308181613045565b9050919050565b7f4552433732313a206f70657261746f7220717565727920666f72206e6f6e657860008201527f697374656e7420746f6b656e0000000000000000000000000000000000000000602082015250565b60006130e4602c83612191565b91506130ef82613088565b604082019050919050565b60006020820190508181036000830152613113816130d7565b9050919050565b7f4552433732313a207472616e73666572206f6620746f6b656e2074686174206960008201527f73206e6f74206f776e0000000000000000000000000000000000000000000000602082015250565b6000613176602983612191565b91506131818261311a565b604082019050919050565b600060208201905081810360008301526131a581613169565b9050919050565b7f4552433732313a207472616e7366657220746f20746865207a65726f2061646460008201527f7265737300000000000000000000000000000000000000000000000000000000602082015250565b6000613208602483612191565b9150613213826131ac565b604082019050919050565b60006020820190508181036000830152613237816131fb565b9050919050565b600061324982612241565b915061325483612241565b92508282101561326757613266612f7e565b5b828203905092915050565b600061327d82612241565b915061328883612241565b9250827fffffffffffffffffffffffffffffffffffffffffffffffffffffffffffffffff038211156132bd576132bc612f7e565b5b828201905092915050565b7f4552433732313a207472616e7366657220746f206e6f6e20455243373231526560008201527f63656976657220696d706c656d656e7465720000000000000000000000000000602082015250565b6000613324603283612191565b915061332f826132c8565b604082019050919050565b6000602082019050818103600083015261335381613317565b9050919050565b7f45524337323155524953746f726167653a2055524920717565727920666f722060008201527f6e6f6e6578697374656e7420746f6b656e000000000000000000000000000000602082015250565b60006133b6603183612191565b91506133c18261335a565b604082019050919050565b600060208201905081810360008301526133e5816133a9565b9050919050565b600081905092915050565b600061340282612186565b61340c81856133ec565b935061341c8185602086016121a2565b80840191505092915050565b600061343482856133f7565b915061344082846133f7565b91508190509392505050565b7f45524337323155524953746f726167653a2055524920736574206f66206e6f6e60008201527f6578697374656e7420746f6b656e000000000000000000000000000000000000602082015250565b60006134a8602e83612191565b91506134b38261344c565b604082019050919050565b600060208201905081810360008301526134d78161349b565b9050919050565b600081519050919050565b600082825260208201905092915050565b6000613505826134de565b61350f81856134e9565b935061351f8185602086016121a2565b613528816121d5565b840191505092915050565b600060808201905061354860008301876122d6565b61355560208301866122d6565b61356260408301856123ec565b818103606083015261357481846134fa565b905095945050505050565b60008151905061358e816120f7565b92915050565b6000602082840312156135aa576135a96120c1565b5b60006135b88482850161357f565b91505092915050565b7f4552433732314d657461646174613a2055524920717565727920666f72206e6f60008201527f6e6578697374656e7420746f6b656e0000000000000000000000000000000000602082015250565b600061361d602f83612191565b9150613628826135c1565b604082019050919050565b6000602082019050818103600083015261364c81613610565b9050919050565b7f4e487b7100000000000000000000000000000000000000000000000000000000600052601260045260246000fd5b600061368d82612241565b915061369883612241565b9250826136a8576136a7613653565b5b828204905092915050565b60006136be82612241565b91506136c983612241565b9250826136d9576136d8613653565b5b828206905092915050565b7f4552433732313a206d696e7420746f20746865207a65726f2061646472657373600082015250565b600061371a602083612191565b9150613725826136e4565b602082019050919050565b600060208201905081810360008301526137498161370d565b9050919050565b7f4552433732313a20746f6b656e20616c7265616479206d696e74656400000000600082015250565b6000613786601c83612191565b915061379182613750565b602082019050919050565b600060208201905081810360008301526137b581613779565b905091905056fea2646970667358221220f901dccc69a90e7c6e52019e5a968ac88698c0951a383fb874a8c0acfc448b4964736f6c63430008090033",
  "immutableReferences": {},
  "source": "// SPDX-License-Identifier: MIT\npragma solidity ^0.8.2;\n\nimport \"@openzeppelin/contracts/token/ERC721/ERC721.sol\";\nimport \"@openzeppelin/contracts/token/ERC721/extensions/ERC721URIStorage.sol\";\nimport \"@openzeppelin/contracts/token/ERC721/extensions/ERC721Burnable.sol\";\nimport \"@openzeppelin/contracts/access/Ownable.sol\";\nimport \"@openzeppelin/contracts/utils/Counters.sol\";\n\n/**\n* Mint Club project ERC721 token\n*/\ncontract MyToken is ERC721, ERC721URIStorage, ERC721Burnable, Ownable {\n    using Counters for Counters.Counter;\n\n    Counters.Counter private _tokenIdCounter;\n    event TokenMinted( uint256 indexed tokenId, address owner);\n\n    constructor(string memory name, string memory symbol) ERC721(name,symbol) {}\n\n    function safeMint (\n        address to, \n        string memory tokenUri\n    ) public onlyOwner returns (uint256) {\n        _safeMint(to, _tokenIdCounter.current());\n        _setTokenURI(_tokenIdCounter.current(), tokenUri);\n        _tokenIdCounter.increment();\n        emit TokenMinted(_tokenIdCounter.current(), to);\n        return _tokenIdCounter.current();\n    }\n\n    function batchMint(\n        address to, \n        string[] memory tokenUriList, \n        uint256 supply \n    ) public onlyOwner returns (uint256 [] memory ){\n        require(\n            tokenUriList.length == supply,\n            \"supply & URIs length mismatch\"\n        );\n        uint256[] memory tokenIds = new uint256[](supply);\n        for (uint256 i = 0; i < supply; i++) {\n            string memory data = tokenUriList[i];\n            uint256 tokenId = safeMint(to, data);\n            tokenIds[i] = tokenId;\n        }\n        return tokenIds;\n    }\n    \n   \n\n    // The following functions are overrides required by Solidity.\n\n    function _burn(uint256 tokenId)\n        internal\n        override(ERC721, ERC721URIStorage)\n    {\n        super._burn(tokenId);\n    }\n\n    function tokenURI(uint256 tokenId)\n        public\n        view\n        override(ERC721, ERC721URIStorage)\n        returns (string memory)\n    {\n        return super.tokenURI(tokenId);\n    }\n}\n",
  "sourcePath": "/Users/tania/Documents/MintClub/contracts/MyToken.sol",
  "compiler": {
    "name": "solc",
    "version": "0.8.9+commit.e5eed63a.Emscripten.clang"
  },
  "schemaVersion": "3.4.3",
  "updatedAt": "2022-02-03T14:43:28.065Z",
  "devdoc": {
    "kind": "dev",
    "methods": {
      "approve(address,uint256)": {
        "details": "See {IERC721-approve}."
      },
      "balanceOf(address)": {
        "details": "See {IERC721-balanceOf}."
      },
      "burn(uint256)": {
        "details": "Burns `tokenId`. See {ERC721-_burn}. Requirements: - The caller must own `tokenId` or be an approved operator."
      },
      "getApproved(uint256)": {
        "details": "See {IERC721-getApproved}."
      },
      "isApprovedForAll(address,address)": {
        "details": "See {IERC721-isApprovedForAll}."
      },
      "name()": {
        "details": "See {IERC721Metadata-name}."
      },
      "owner()": {
        "details": "Returns the address of the current owner."
      },
      "ownerOf(uint256)": {
        "details": "See {IERC721-ownerOf}."
      },
      "renounceOwnership()": {
        "details": "Leaves the contract without owner. It will not be possible to call `onlyOwner` functions anymore. Can only be called by the current owner. NOTE: Renouncing ownership will leave the contract without an owner, thereby removing any functionality that is only available to the owner."
      },
      "safeTransferFrom(address,address,uint256)": {
        "details": "See {IERC721-safeTransferFrom}."
      },
      "safeTransferFrom(address,address,uint256,bytes)": {
        "details": "See {IERC721-safeTransferFrom}."
      },
      "setApprovalForAll(address,bool)": {
        "details": "See {IERC721-setApprovalForAll}."
      },
      "supportsInterface(bytes4)": {
        "details": "See {IERC165-supportsInterface}."
      },
      "symbol()": {
        "details": "See {IERC721Metadata-symbol}."
      },
      "transferFrom(address,address,uint256)": {
        "details": "See {IERC721-transferFrom}."
      },
      "transferOwnership(address)": {
        "details": "Transfers ownership of the contract to a new account (`newOwner`). Can only be called by the current owner."
      }
    },
    "version": 1
  },
  "userdoc": {
    "kind": "user",
    "methods": {},
    "notice": "Mint Club project ERC721 token",
    "version": 1
  }
}